:400000000010002011000000210800002108000080B500AF00F030FC80B584B000AF021CFB1D1A70204A3B1C0B3312781A701F4A3B1C0A3312781A700423013BFB6018E07B
:400040001B4B1868391C0B31FA68131C5B009B18C3185B780B70164B1868391C0A31FA68131C5B009B18C3189B780B70FB68013BFB60FB68002B0ADB0D4B1968FA68131CF1
:400080005B009B185B5CFA1D12789A42D8D9094B3A1C0B3212781A60074B3A1C0A3212781A60BD4604B080BDCCF1FF0FCDF1FF0FD00000201CFF0B4020FF0B4080B500AF4B
:4000C0001D4B1D4A12688021C9020A431A601820FFF7A2FF194B19221A60052000F0F8FD174B184A1278D2B21A60052000F088FE114B114A1168144A0A401A60134B144A9D
:400100001A60144B20221A60134B10221A60134B21221A60124B822212061A60114B124A1A60124B124A1A60124B134A1A60134B134A1A60BD4680BD00010B402CFF0B40A2
:4001400028FF0B40E5F1FF0FFFFFFBFF04010B40060000800C0202401C0202403002024008010B40000002400800008040000240CF000080040002403F06008044000240B7
:40018000DB0500C080B582B000AF72B6464B01221A70FB1D00221A7023E0FB1D1A78131C5B009B185B00414A9B183B603B681A78597809020A43997809040A43DB781B0604
:4001C00013431A1C3B6819795B791B020B439BB2101C191C00F0CEFBFB1D1A78FB1D01321A70FB1D1B78012BD7D9314A314B101C191C00F0CFFB304B802252001A802F4BFD
:4002000001221A702E4B902212041A602D4BEE2212021A602C4BA0221A602C4B2C4A1A602C4B20221A602C4B08221A602B4B08221A602B4BD82212011A602A4B2A4A1A605E
:400240002A4B802212061A60294B992212041A60284B992212041A60274B01221A60274B02221A60264B264A1278D2B202210A43D2B21A70234B234A1278D2B23C218A43B9
:40028000D2B214210A43D2B21A701D4B1C4A1278D2B216210A43D2B21A70FFF70FFF00F0B9FBBD4602B080BD1C700F408425000090250000B025000000600F4002600F40B4
:4002C000000001400C0001400000044008000440300043001800044000020440180204400803044000500F400400990004500F4020500F4030500F402000004000800F4082
:4003000000700F4001700F4010B5064C2378002B07D1054B002B02D0044800E000BF0123237010BD4801002000000000EC24000008B5084B002B03D00748084900E000BF07
:4003400007480368002B03D0064B002B00D0984708BDC04600000000EC2400004C010020C80000200000000080B590B000AF144B01221A70002000F061FE031C9AB2114B04
:400380001A80104B1B889BB21BB20020191C00F077FE031C391D0C4A081C111C1A1C01F0A1FC3B1D181C00F061FF002000F0E8FB00F096FB012000F00BFCBD4610B080BD89
:4003C000780100207A010020F824000080B500AF00F086FB00F028FD00F0C8FE194B181C00F01CFC002000F0F3FB00F019FE164B181C00F03BFF62B6144B1B78002B20D004
:40040000002000F01BFE031C9AB2114B1A80104B1A888023DB009A4213D900F0BDFB031C5A420C4B1A6000F06DFB084B00221A70002000F0CDFB074B1B68181C00F00CF88F
:40044000DAE7D9E7690300002C25000078010020800100207C010020F0B587B000AFF860FB68191C00231A1C0B1C141CD80E65017D607D6805437D60580138603B687C6891
:400480005B1A9441980FA60006439D002B1C341C5B185441181C211CCA4BC94A00F0B0FF031C0C1C3B617C61D34B181C00F0DEFEFB68181CD14900F0F3FE031C3033181CC2
:4004C00000F06AFEFB68181CCC4900F02DFF0B1CFB60FB68181CCA4900F0E2FE031C3033181C00F059FEFB68181CC54900F01CFF0B1CFB60FB68181CC24900F0D1FE031C31
:400500003033181C00F048FEFB68181CBD4900F00BFF0B1CFB60FB68181CBB4900F0C0FE031C3033181C00F037FEFB68181CB64900F0FAFE0B1CFB60FB68181CB34900F02E
:40054000AFFE031C3033181C00F026FEFB68181CAE4900F0E9FE0B1CFB60FB68181CAC4900F09EFE031C3033181C00F015FEFB68181CA74900F0D8FE0B1CFB60FB68181CE6
:40058000FA23990000F08CFE031C3033181C00F003FEFB68181CFA23990000F0C5FE0B1CFB60FB68181C642100F07AFE031C3033181C00F0F1FDFB68181C642100F0B4FE0C
:4005C0000B1CFB60FB68181C0A2100F069FE031C3033181C00F0E0FDFB68181C0A2100F0A3FE0B1CFB60FB683033181C00F0D4FD884B181C00F03AFE3B697C69181C211C24
:40060000714A724B00F0FCFE031C0C1C3033181C00F0C2FD3B697C69181C211C6A4A6B4B00F0EEFE1C1C131C3B617C613B697C69181C211C664A674B00F0E2FE031C0C1C38
:400640003033181C00F0A8FD3B697C69181C211C5F4A604B00F0D4FE1C1C131C3B617C613B697C69181C211C5B4A5C4B00F0C8FE031C0C1C3033181C00F08EFD3B697C6980
:40068000181C211C544A554B00F0BAFE1C1C131C3B617C612C2000F07FFD3B697C69181C211C4F4A4F4B00F0ABFE031C0C1C3033181C00F071FD3B697C69181C211C484ABD
:4006C000484B00F09DFE1C1C131C3B617C613B697C69181C211C444A444B00F091FE031C0C1C3033181C00F057FD3B697C69181C211C3D4A3D4B00F083FE1C1C131C3B61C7
:400700007C613B697C69181C211C394A394B00F077FE031C0C1C3033181C00F03DFD3B697C69181C211C324A324B00F069FE1C1C131C3B617C612C2000F02EFD3B697C6954
:40074000181C211C6422002300F05AFE031C0C1C3033181C00F020FD3B697C69181C211C6422002300F04CFE1C1C131C3B617C613B697C69181C211C0A22002300F040FEF8
:40078000031C0C1C3033181C00F006FD3B697C69181C211C0A22002300F032FE1C1C131C3B617C613B693033181C00F0F5FC1A4B181C00F05BFDBD4607B0F0BDC046C046AF
:4007C000B80B00000000000000E1F50500000000809698000000000040420F0000000000A0860100000000001027000000000000E8030000000000004825000000CA9A3BC7
:4008000000E1F5058096980040420F00A0860100102700006C25000078250000C046C04680B500AFFEE7C04680B584B000AF78600F4B1A687B68D3181A1C0E4BD31A802B76
:4008400009DC0B4B1B68FB60094B1A687B68D218074B1A6007E001F007FA031C0C221A6001235B42FB60FB68181CBD4604B080BDCC0000209001002080B586B000AF224B85
:400880007B61224B3B61204B7B6135E03B691B68FB603B695B68BB603B699B683B6000237B600CE0FB681A68BB681A60BB680433BB60FB680433FB607B6804337B607A6804
:4008C0003B689A42EED13B69DB683B6000237B6008E0BB6800221A60BB680433BB607B6804337B607A683B689A42F2D13B6910333B617B69013B7B617B69002BC6D101F0EF
:40090000B9F9FFF763FDFEE7010000002C27000080B582B000AF00237B600FE07B68032B04D8104B7A689200D35800E00E4B0F4A796889008B507B6801337B607B682F2B86
:40094000ECD9FFF71FFC0A4B00221A608023DB058022D205126801210A431A60BD4602B080BDC046000000002108000000000020C000002080B582B000AF786039607A68C7
:400980003B68101C00211A1C01F0A3F9BD4602B080BDC04680B586B000AF7860396000233B6100237B612EE07B699B007A68D3181B68BB603B1C0F33BA681A70BB68FF22C2
:4009C0009343BB6017E03B695B003A68D3181B781A1CBB68D3183A69520039688A1852781A703B6901333B613B1C0F331A783B1C0F33013A1A703B1C0F331B78002BE2D119
:400A00007B6901337B617B69072BCDD9BD4606B080BDC04680B500AF034B08221A60012000F004F8BD4680BD00031A4080B584B000AF021CFB1D1A700B4B1B68FB60FB1D66
:400A40001B78002B05D0FB68802212061343FB6003E0FB685B005B08FB60034BFA681A60BD4604B080BDC04680031A4090B583B000AF01235B42181C00F06CF801235B4284
:400A8000181C00F07DF8FC1D00F02CF9031C23700A4B0A4A1278D2B210210A43D2B21A70FB1D1B78181C00F021F900F083F8002000F036F8BD4603B090BDC04693000F40FD
:400AC00080B500AF054B054A1278D2B2802149420A43D2B21A70BD4680BDC04670000F4080B500AF064B1B78002B04D1FFF7BEFF034B01221A70FFF7E3FFBD4680BDC04645
:400B00006401002080B500AF044B044A1278D1B27F220A40D2B21A70BD4680BD70000F4080B582B000AF021CFB1D1A70034BFA1D12781A70BD4602B080BDC04683000F4091
:400B400080B500AF024B1B78DBB2181CBD4680BD63000F4080B582B000AF7860024B7A681A60BD4602B080BD80200F4080B500AF024B1B68181CBD4680BDC04600210F40E8
:400B800080B582B000AF7860024B7A681A60BD4602B080BD00200F4080B500AF034B1B78034B1B68181CBD4680BDC04600000F4000210F4080B500AF01E0FFF7D7FFFFF7E7
:400BC000BFFF031C1A1C08231340F6D1BD4680BD80B584B000AF021CFB1D1A700E4B1B68DAB23B1C0F3302218A431A70FB1D1B78DB18DAB202231340D9B23B1C0F333A1CEE
:400C00000F3212780A431A70034B3A1C0F3212781A60BD4604B080BD0000044080B582B000AF786000F04AF87B68181C00F008F8032000F011F800F037F8BD4602B080BD9D
:400C400080B582B000AF7860024B7A681A64BD4602B080BD0000002090B585B000AF021CFB1D1A700623FB603C1C0B3400F03AF8031C23700B4B0B4A1268C021101C8843F2
:400C8000011CFA1D1078FA68041C9440221C0A431A603B1C0B331B78181C00F027F8BD4605B090BD00E400E080B500AF024B01221A60BD4680BDC04600E100E080B500AF30
:400CC000024B01221A60BD4680BDC04680E100E00230800804D0C0460138FDD1C046C046C0467047EFF3108072B6704780F310887047C046C046C04680B584B000AF021CC4
:400D00003960FB1D1A7080239B05FB60FB1D1B781F2B02D9002000F069F8FB1D1B7810339B00FA68D3181B68BB60FB1D1B7810339B00FA68D3183A681A60BB68181CBD46D9
:400D400004B080BD90B587B000AF0A1CFB1D011C1970BB1D1A70BB1D1B78032B02D9002000F044F8FB1D1B781F2B02D9002000F03DF8FB1D1A7803231340DB0006337B6129
:400D80003C1C1334FFF7AEFF031C2370FB1D1B789B08DBB29B0014495B181B68FB607B690322111C99400B1CDA43FB681340FB60BB1D1A787B69111C99400B1CFA68134384
:400DC000FB60FB1D1B789B08DBB29B00064A9B18FA681A603B1C13331B78181CFFF786FFBD4607B090BDC04600E400E080B582B000AF021CFB1D1A7001BEBD4602B080BD0C
:400E000080B582B000AF021CBB1D1A80BB1D1B88044A12785343181CFFF75AFFBD4602B080BDC046DC00002080B500AF064B1B78002B04D100F00AF8034B01221A7000F007
:400E4000DBF8BD4680BDC0466501002090B585B000AF0E200321FFF775FF4E4B0E20191CFFF74AFF4C4B01221A604C4B4C4A1A604C4B4D4A1A604D4B4D4A1A604D4B0022CD
:400E80001A604D4B4D4A1A604D4B4C4A1A604D4B4C4A1268802149020A431A604A4B00221A604A4B00221A60494B01221A60494B02221A60484B1B687B607A68474B13408F
:400EC0007B607B68012213437B60434B7A681A600023FB6057E00022DC239B0113407B60FB689B003E4A9B187A681A600022012313400AD0344B344A1168FA680120041C35
:400F00009440221C92B20A431A600022022313400AD02E4B2D4A1168FA680120041C9440221C92B20A431A60002280239B00134003D080235B00BB6002E080235B01BB605C
:400F4000002280235B00134005D1264BFA6852000021D15204E0234BFA6852000021D152BB68214A5343214A9B18181C204900F0E5F9031C9BB219B21E4BFA689200D15013
:400F8000FB680133FB60FB68002BA4D0BD4605B090BDC0462511000020001A4000001A407002005104001A408C00008018001A400000FF071C001A4010001A40020002009F
:400FC00014001A4000031A4028021A4038021A4018021A40000F1A4030001A40FFFFFFDF80001A408401002010270000E40C0000C81900008801002080B500AF074B1B68E2
:40100000002B09DB054B054A1268802109060A431A600A20FFF7F4FEBD4680BD00001A4080B500AF044B044A1268802149020A431A60BD4680BDC04604001A4080B584B0AA
:4010400000AF78607B68002B02D00020FFF7CEFE7B68002B08D17B689B00084A9B181B681B041B0CFB6001E00023FB60FB689BB21BB2181CBD4604B080BDC04680011A40B4
:4010800080B584B000AF78600A1CBB1C1A807B68002B02D00020FFF7A9FEBB1C1A881E4B79684900CB5A9BB29BB2D31A9AB2BB1C1A80BB1C00215B5E184A5A43BB1C0021EF
:4010C0005B5E002B08DD164B79688900CB58002B00DA01335B1008E0114B79688900CB58002B00DA01335B105B42D2180C4B79688900CB58101C191C00F020F9031C1A1CF6
:401100003B1C0E331A803B1C0E331B881BB2181CBD4604B080BDC04684010020102700008801002080B582B000AF044B1B687B60024B7A681A60BD4602B080BD10021A40F8
:4011400080B500AF00F03EF8BD4680BD80B500AF054B054A1268802109060A431A6000F017F8BD4680BDC0460000074080B500AF064B1B78002B04D1FFF7E2FF034B012215
:401180001A70FFF7E3FFBD4680BDC0466801002080B500AFBD4680BD80B582B000AF7860C046064B1A680F231340082BF9D0044B7A681A60BD4602B080BDC046080207409E
:4011C0004002074080B500AF174B184A1A60184B00221A60174B01221A60174B07221A60164B07221A60164B00221A60154B01221A60154B154A1A60154B00221A60154BAE
:4012000000221A60144B00221A60144B00221A60134B00221A60134B00221A60124B00221A60BD4680BDC046000007400B00000240000740480007400003074004030740E7
:401240001003074044000740000207400700008004020740880E0740C80E0740480F0740080F0740C80F0740880F074080B584B000AF78600023FB6009E07A68FB68D318F3
:401280001B78181CFFF788FFFB680133FB607A68FB68D3181B78002BEFD1BD4604B080BD002934D00123002210B488422CD301242407A14204D2814202D209011B01F8E7B1
:4012C000E400A14204D2814202D249005B00F8E7884201D3401A1A434C08A04202D3001B5C0822438C08A04202D3001B9C082243CC08A04202D3001BDC082243002803D09A
:401300001B0901D00909E3E7101C10BC7047002801D00020C04307B4024802A14018029003BDC046D90000000029F0D003B5FFF7B9FF0EBC4243891A1847C046002941D000
:4013400010B4041C4C40A44601230022002900D54942002800D5404288422CD301242407A14204D2814202D209011B01F8E7E400A14204D2814202D249005B00F8E78842D6
:4013800001D3401A1A434C08A04202D3001B5C0822438C08A04202D3001B9C082243CC08A04202D3001BDC082243002803D01B0901D00909E3E7101C6446002C00D5404230
:4013C00010BC7047002806D003DB0020C043400801E08020000607B4024802A14018029003BDC046190000000029EBD003B5FFF7A7FF0EBC4243891A1847C0467047C046DF
:40140000002B11D1002A0FD1002900D1002802D00021C943081C07B4024802A14018029003BDC046D9FFFFFF03B4684601B5029800F044F8019B9E4602B00CBC7047C0468A
:401440009C460304F0B51B0C17043F0C150C1E1C041C000C7E436B4347434543FB18300C1818874202D980235B02ED18030CED1863465C434A433604360CA1180004801966
:401480004919F0BDF0B583B0161C1F1C0090019100F04CF8041C0D1C221C2B1C301C391CFFF7CEFF009A019B121A8B410899201C0A604B60291C03B0F0BDC046F0B583B0AD
:4014C000141C1D1C0090019100F00CFA221C2B1C061C0F1CFFF7B4FF009A019B121A8B410899301C0A604B60391C03B0F0BDC0461C2101231B04984201D3000C10391B0A5D
:40150000984201D3000A08391B09984201D30009043902A2105C40187047C04604030202010101010000000000000000F0B544465F4656464D46F0B41C1C85B0002900DA4F
:40154000DBE00F1C0021061C8A46101C191C002C00DAC9E00196009089468046002951D1B84200D871E0FFF7C3FF002809D020234546311C1B1A85408740D940A8460F434A
:4015800086404246150C13041B0C291C381C9B46FFF786FE5B464343041C291C381C9946FFF7C2FE330C08041843814509D94044631E804500D978E1814500D875E1023C99
:4015C00040444946411A8946081C291CFFF768FE5A464243071C291C48469346FFF7A4FE36040904360C0E43B34507D946447B1EB04502D8023FB34500D81F1C24042743DB
:40160000002403E0B94211D9002400275246381C211C002A03D03B1C00215842A14105B03CBC90469946A246AB46F0BD081CFFF75FFF041E00D0BFE0B94500D242E1019DD7
:401640000099071C8D424741E0E7002804D101200021FFF725FE80464046FFF749FF002852D1414644460B043C1B1B0CA3460D0C00930124291C5846FFF712FE009F8146BC
:401680004743291C5846FFF74FFE330C090419438F4208D94B464144013B884502D88F4200D91AE19946C91B8B46081C291CFFF7F7FD009B291C4343071C58460093FFF7EB
:4016C00033FE3604009D0904360C0E43B54207D946447B1EB04502D8023FB54200D81F1C49460E04374391E75246D243031C0C1C924600215842A1412CE7002746428F41A0
:40170000012149428A4620E720231B1A4246351C82403C1CDD40DC4087402B1C150C3B43291C8640201C009317049046FFF7B8FD3F0C011C794381468B46201C291CFFF72B
:40174000F3FD009C0904230C19438B450CD94B464144013B884500D9BDE08B4500D8BAE002225242914441445C460C1B201C291C0194FFF795FD391C4143041C8B460198DD
:40178000291CFFF7D1FD009A090413041B0C19438B4509D94144631E884500D997E08B4500D894E0023C41445B46CB1A49469B460B041C4300975DE7009D20231B1A4A4647
:4017C0008240DD401543391C009AD94082408846311C0092D9403A1C82400B1C134301932F0C2B041B0C391C40460293FFF758FD029A81464243391C40469346FFF794FD8A
:40180000019A0904130C19438B450AD94B464919013B8D425DD88B455BD902235B42994449195A468A1A101C391C0392FFF738FD029B80464343391C03989B46FFF774FDF4
:40184000019A090413041B0C19438B450AD943464919013B8D4238D88B4536D902235B42984449195D464D1BAB464946009D0F04424617432A04120C3B042D0C1B0C380C42
:40188000111C594342436B436843D3180D0C5B198C469A4202D98022520280181D0C401983450CD303D00024B0E61C1C89E665462A041B04120C9B18A6409E42F3D2013F01
:4018C0000024A3E600240127A0E69846CAE71C1C6AE79946A5E7994646E70222524291444144E0E6F0B55F4656464D464446F0B40D1C85B0061C924698460290019103926C
:401900001F1C141C8346A946002B59D1AA4269D9101CFFF7EDFD00280AD020231B1A311CD94085400B1C2B43864084409946B346250C23041B0C291C48469846FFF7B0FC87
:401940004646071C4643291C4846FFF7EDFC5A460904130C19438E4209D909197B1E8C4200D957E18E4200D854E1023F0919891B8946081C291CFFF793FC43464343061C37
:40198000291C48469846FFF7CFFC5A46130409041B0C1943884508D90919731E8C4200D936E1023E884500D832E1380430430027391C05B03CBC90469946A246AB46F0BD44
:4019C000019A934262D8181CFFF792FD041E60D1019B9F4200D22CE1029F03998F4260410027E5E7002A04D101200021FFF758FC041C201CFFF77CFD002800D0B9E0230425
:401A00002D1B1B0CA946260C98460127311C4846FFF746FC41464143051C8A464846311CFFF782FC5A460804130C1843824507D900196B1E844202D8824500D910E11D1CD9
:401A40005346C31A181C311C9A46FFF729FC41464143814688465046311CFFF765FC5A46130409041B0C194388450BD94B460919013B8C4200D9CFE0884500D8CCE00223E7
:401A80005B42994428044946084391E7002700208EE720231B1A424657468240DF401743524682400192321CDA40291CD9408540131C2B4302933D0C3B041B0C8846081C4F
:401AC000291C9A46FFF7ECFB534643438146291C40469B46FFF728FC029A0904130C19438B4506D94B46C919013B8F4200D8ABE099465A468A1A101C291C9346FFF7D0FB54
:401B000053464343291C804658469A46FFF70CFC029A090415042D0C29438A4506D94346C919013B8F4200D886E098465746CF1BBA464946019F0804424610433D042D0C3F
:401B400003043F0C1B0C020C291C594355437B437A43EB180F0CDB198C469D4202D980277F02D2191D0C521992455FD356D000271EE720231B1A311C2F1CD940DF4085403D
:401B80000B1C84402B4386400193B3462304260C1B0C381C311C9846FFF782FB42464243051C311C381C9146FFF7BEFB019F09043B0C1943894507D909196B1E8C424DD816
:401BC00089454BD9023D09194A468A1A101C311C9246FFF765FB43464343071C311C50469946FFF7A1FB019A090413041B0C1943894507D909197B1E8C422DD889452BD9E1
:401C0000023F09194B46CB1A2D0499462F43FDE61E1CCAE61F1CAAE6994633E761460A041B04120C9B18A6409E42A0D201380027BEE600270120BBE68A4500D875E70223C6
:401C40005B429844C91971E78B4500D850E702235B429944C9194CE71F1CD3E71D1CB3E7023D0019ECE6C046014B18687047C0464401002070B50E4B0E4D0024ED1AAD1077
:401C80001E1CAC4204D0A300F35898470134F8E700F03AFD084B094D0024ED1AAD101E1CAC4204D0A300F35898470134F8E770BD1427000014270000142700001C27000091
:401CC00010B50023934203D0CC5CC4540133F9E710BD031C8218934202D019700133FAE7704700000EB400B59CB01DAB04CB822202A992008A810A4A02908A604A6101229A
:401D00005242CA81074A086110681D9A019300F06BF8029A002313701CB008BC03B01847FFFFFF7F44010020F0B58D6885B0071C0C1C03920193AB4245D390228B89D2004F
:401D400013423DD062690326564309692068F20F401A96190290021C0198013212187610964200D2161C381C5A050FD5311C00F021FB051E13D0029A2169FFF7A1FFA2898B
:401D8000184B134080221343A38111E0321C00F065FB051E0CD1381C216900F0C3FA0C233B60A389402213430120A381404217E0029B2561ED1825606661019DF61AA660A3
:401DC0000198A84200D2019D2A1C2068039900F090FAA2680020531BA36023685D19256005B0F0BD7FFBFFFFF0B59FB0039005938B890E1C171C19060FD53269002A0CD1DC
:401E0000402100F0D7FA30603061002803D103990C230B60C9E04023736106AD00236B6120236B763023AB763C1C2378002B03D1E21B029211D003E0252BF9D00134F4E7A3
:401E40000398311C3A1C029BFFF76EFF013000D1A6E06969029A8B186B612378002B00D19EE0012252426A606A4600235B3201342B60EB60AB601370AB654E4F2178381C96
:401E8000052200F02BFA002807D0C71B2B680120B840184328600134EFE72B68D90603D56A4620215B3211701A0703D56A462B215B32117022782A2A01D0099B0EE0059A2F
:401EC000111D12680591002A01DB099204E05242EA60022213432B60013409E02278303A092A04D80A214B4301349B18F6E7099323782E2B18D163782A2B09D1059B023434
:401F00001A1D1B680592002B0DDA01235B420AE0013400232278303A092A04D80A214B4301349B18F6E70793234F2178381C032200F0D4F9002806D0C71B2B684020B84004
:401F400018432860013421781C480622671C297600F0C4F9002812D0194B002B06D1059B0722073393430833059314E005AB00930398291C321C134B00E000BF07E005AB40
:401F800000930398291C321C0E4B00F091F804900499013104D06A69049953186B6143E7B3895A0601D40B9801E0012040421FB0F0BDC046D2260000D8260000DC26000074
:401FC00000000000291D0000F7B5151C01930A698B68061C0C1C934200DA131C221C2B6043321278002A01D001332B602068800602D52B6802332B60216806270F401FD0EE
:40200000231C43331B785A1E9341226892061FD5E11840313020C870211C5A1C45310978A21840320233D17012E0221C301C019919320123089FB847013011D0009F0137A4
:402040000097E0682968009F431A9F42EDDBD7E7221C301C01994332089FB847013002D10120404223E0206806212B68E26801400025042903D1D51AEB43DB171D40A2683B
:4020800023699A4201DDD31AED1800270097009FAF420BDA221C301C01991A320123089FB8470130DCD0009F0137EFE70020FEBDF0B50D1C8BB04335069205900793049535
:4020C0000B7E0C1C109A6E2B00D1A7E011D8632B22D009D8002B00D1B0E0582B00D0C0E045310B707B4D4EE0642B1CD0692B1AD0B7E0732B00D1A5E009D86F2B29D0702B51
:4021000000D0AEE00E68202333430B6036E0752B1FD0782B32D0A4E013680D1C191D423511601B689FE0216813680E0603D5191D11601E6805E04806F9D5191D116000212F
:402140005E5E644B002E3BDA049D2D2276422A7036E0216813680E0603D5191D11601E6804E04806F9D5191D1E881160594B227E039308276F2A1ED00A271CE0231C78215A
:402180004533554D197011682368081D039510601E0601D50E6802E05806FBD50E88D90702D52022134323601027002E03D1226820239A432260231C002243331A7001E0BC
:4021C00003930A276368A360002B03DB2568042295432560002E02D1049D002B0ED0049D301C391CFFF7A0F80398013D435C301C2B70391CFFF754F8061EF1D1082F09D1C9
:402200002168C90706D5626823699A4202DC013D30232B70049E731B23612AE0086813684969050604D5181D10601B68196005E04606F8D5181D10601B68198000232361E8
:40224000049D16E01368191D11601D68281C00F03DF963682061984200D923612069606004E0251C42352B7001232361049E00233370079E05980096211C09AA069BFFF744
:40228000A3FE013002D10120404221E02A1C059806992369079DA8470130F4D02668B60705D4099BE068984212DA181C10E00025E0680999431A9D42F3DA221C05980699B3
:4022C00019320123079EB0470130DCD00135EFE70BB0F0BDE3260000F4260000C9B28218904204D003788B4202D00130F8E70020704770B5814201D300230CE08C18A04252
:40230000FAD28518131C013B0BD351426618F65C6918CE54F7E7934203D0CC5CC4540133F9E770BD30B5002940D004390B68002B00DAC9181E4A1368141C002B02D14B606E
:40234000116033E099420FD208680A189A4205D113685268C01808604A6000E04B60216024E08A4203D8131C5A68002AF9D11D685C198C420BD109686918581819609042CD
:4023800014D114685268091919605A600EE08C4202D90C23036009E008680C18944203D114685268001908604A60596030BDC0467401002070B50323CD1C9D430835061C48
:4023C0000C2D01D20C2501E0002D3FDB8D423DD3204B1C681A1C211C002913D00868431B0DD40B2B02D90B60CC181EE08C4202D1636813601AE0486860600C1C16E00C1C8F
:402400004968E9E7144C2068002803D1301C00F04BF82060301C291C00F046F8431C15D0C41C03239C4384420AD12560201C0B300722231D9043C31A0BD05A42E25008E009
:40244000211A301C00F030F80130EED10C233360002070BD7401002070010020F8B5061C0C1C151C002904D1111CFFF7A3FF041C18E0002A03D1FFF755FF2C1C12E000F023
:402480002CF8A8420ED2301C291CFFF793FF071E07D0211C2A1CFFF713FC301C211CFFF741FF3C1C201CF8BD38B5074C0023051C081C2360FEF7B8F9431C03D12368002BCF
:4024C00000D02B6038BDC0468C0100200023C25C0133002AFBD1581E704704390B68181F002B02DAC8581B18181F7047000000003CF0FF7F010000005374617274696E671B
:40250000206E6577206D6561737572656D656E742C2063757272656E7420766F6C746167653A202564206D560A0D00004352545F74696D657220696E697469616C697A6572
:40254000642E2E0A0D00000054696D65722073746F707065642C206D656173757265642074696D65207761733A20000020636F756E7473206F7220002075732E0A0D000004
:402580000400000000300F40000400400F40000401000F4030300F400F310F4032320F4014330F4004400F4004410F4002600F40830D405449FF4AFF4BFF4F0150185280C9
:4025C0005A045B045D995F016040624064406540668068806A806C806E808E04940196029A01B204B402B601C051C9FFCAFFCBFFCD83CE03CF01D018D804DA04DD09DF0169
:40260000E040E240E440E540E680E880EA80EC80EE8007020D080E041D081E041F804101460148024C027002C080C260D011D218405149FF4AFF4BFF4D834E034F015018E2
:402640005A045D095F016040624064406540668068806A806C806E808E01AE01B601BE40C054C5ECC720C823C9FFCAFFCBFFCD83CE03CF01D018D401D804DA04DB04DD9977
:40268000DF01E040E240E440E540E680E880EA80EC80EE8002011002194041014601480249054C0251015201594595029E01A002AF82C001C401D011D218D60B0D806F2026
:4026C000C280DA80AD80AF20EC40EE10100111014300232D302B2000686C4C0065666745464700303132333435363738394142434445460030313233343536373839616251
:402700006364656600000000F8B5C046F8BC08BC9E4670473103000011090000F8B5C046F8BC08BC9E4670470903000040270000C80000208000000048000000000000000A
:402740000000000090010020C0F1FF0F00366E01C05D0000180000000000E02E0000000000000000000000000000000000000000000000000000000000000000D02600000B
:40278000000000000000000000000000000000000000000000000000000000000000000000000000000000000000000000000000000000000000000000000000E400002015
:4027C00000000000000000000000000000000000000000000000000000000000000000000000000000000000000000000000000000000000000000000000000000000000D9
:402800000000000000000000000000000000000000000000000000000000000000000000000000000000000000000000000000000000000000000000000000000000000098
:402840000000000000000000000000000000000000000000000000000000000000000000000000000000000000000000000000000000000000000000000000000000000058
:402880000000000000000000000000000000000000000000000000000000000000000000000000000000000000000000000000000000000000000000000000000000000018
:0200000490303A
:02000000242DAD
:0200000490402A
:200000000000000000000000000000000000000000000000000000000000000000000000E0
:0200000490501A
:0C000000000204C81193110104D535C0A2
:0200000490600A
:0100000001FE
:00000001FF