:400000000010002011000000650900006509000080B500AF00F0AAFC80B584B000AF021CFB1D1A70204A3B1C0B3312781A701F4A3B1C0A3312781A700423013BFB6018E077
:400040001B4B1868391C0B31FA68131C5B009B18C3185B780B70164B1868391C0A31FA68131C5B009B18C3189B780B70FB68013BFB60FB68002B0ADB0D4B1968FA68131CF1
:400080005B009B185B5CFA1D12789A42D8D9094B3A1C0B3212781A60074B3A1C0A3212781A60BD4604B080BDCCF1FF0FCDF1FF0FCC0000201CFF0B4020FF0B4080B500AF4F
:4000C0001A4B1A4A12688021C9020A431A601820FFF7A2FF164B19221A60052000F04CFE144B154A1278D2B21A60052000F000FF0E4B0E4A1168114A0A401A60104B114AED
:400100001A60114B10221A60104B30221A60104B822212061A600F4B0F4A1A600F4B104A1A60104B104A1A60BD4680BD00010B402CFF0B4028FF0B40E5F1FF0FFFFFFBFFAB
:4001400004010B40060000801C0202403002024008010B400000024002000080400002403F06008080000240DB0500C080B582B000AF72B6584B01221A70FB1D00221A70C2
:4001800023E0FB1D1A78131C5B009B185B00534A9B183B603B681A78597809020A43997809040A43DB781B0613431A1C3B6819795B791B020B439BB2101C191C00F054FCE4
:4001C000FB1D1A78FB1D01321A70FB1D1B78012BD7D9434A434B101C191C00F055FC424B802252001A80414B01221A70404B03221A60404B03221A603F4BCC2292051A600B
:400200003E4B3F4A1A603F4B81221A603E4B3F4A1A603F4B19221A603E4B36221A603E4B38221A603D4BC1221A603D4BD82212041A603C4B01221A603B4B60221A603B4BE5
:400240003B4A1A603B4B3C4A1A603C4B3C4A1A603C4B802292021A603B4B992212041A603A4BC02292021A60394B992212041A60384B802292051A60374B992212041A6023
:40028000364B802252051A60354B01221A60354B02221A60344B344A1278D2B202210A43D2B21A70314B314A1278D2B23C218A43D2B214210A43D2B21A702B4B2A4A1278CF
:4002C000D2B216210A43D2B21A70FFF7F7FE00F01BFCBD4602B080BD1C700F40302200003C2200006422000000600F4002600F400000014004000140080001400C00014077
:4003000000EE30030000044008000440760040000001044008010440180104400002044008020440180204400003044008030440800D1B0000500F400400990004500F4058
:400340000000208008500F4010500F4018500F4020500F4028500F4030500F4038500F402000004000800F4000700F4001700F4010B5064C2378002B07D1054B002B02D0F4
:40038000044800E000BF0123237010BDE0000020000000009C21000008B5084B002B03D00748084900E000BF07480368002B03D0064B002B00D0984708BDC0460000000016
:4003C0009C210000E4000020C80000200000000080B500AF0A4B01221A70012000F094FE084B181C00F02EFE002000F041FC012001F038F9012001F099F9BD4680BDC046AE
:4004000008010020A821000090B583B000AFBB1D012252421A8000F0E5FB744B181C00F04FFC002001F01EF901F06EF900F0B6FF01F0DAF800F0BAFD0020002100F0C8FDF7
:400440006B4B181C00F0FEFD0120072100F0C0FD002000F023FE012000F020FE022000F01DFE042000F01AFE052000F017FE62B6604B1B78DBB2002B21D0002001F0C2F804
:40048000031C0A2B00DCB0E000F0FEFB021C5A4B1A60002001F04AF9574B1B685A42564B1A6000F0B1FB534B00221A70002001F0D9F8514B1B68181C00F0AEF8D8E73C1D5D
:4004C000002001F09FF8031C23803A1DBB1D0021525E00215B5E9A4214DDBB1D3A1D12881A800020002100F073FD444B181C00F0A9FD0020002100F06BFDBB1D1B88181C46
:4005000000F0A2FE00F0DCF9031C002B6DD03C4B1B78DBB2012B10D10120002100F058FD364B181C00F08EFD0120002100F050FD344B181C00F086FD57E0314B1B78DBB2FC
:40054000022B10D10120002100F042FD2B4B181C00F078FD0120002100F03AFD2A4B181C00F070FD41E0264B1B78DBB2052B10D10120002100F02CFD204B181C00F062FD72
:400580000120002100F024FD204B181C00F05AFD2BE01B4B1B78DBB2042B10D10120002100F016FD154B181C00F04CFD0120002100F00EFD164B181C00F044FD15E0104BFC
:4005C0001B78DBB2032B10D10120002100F000FD0A4B181C00F036FD0120002100F0F8FC0C4B181C00F02EFD42E741E7D1030000B42100000801002010010020C4210000EC
:400600000C010020D8210000E8210000F82100000822000014220000F0B587B000AFF860FB68191C00231A1C0B1C141CD80E65017D607D6805437D60580138603B687C683C
:400640005B1A9441980FA60006439D002B1C341C5B185441181C211C884B874A01F03CF9031C0C1C3B617C610120002100F0B0FC8F4B181C00F0E6FC0120002100F0A8FCCF
:400680008C4B181C00F0DEFC3B697C69181C211C7B4A7C4B01F020F9031C0C1CDBB23033DBB2181C00F0FAFC3B697C69181C211C734A744B01F010F91C1C131C3B617C61A7
:4006C0003B697C69181C211C6F4A704B01F004F9031C0C1CDBB23033DBB2181C00F0DEFC3B697C69181C211C674A684B01F0F4F81C1C131C3B617C613B697C69181C211CC7
:40070000634A644B01F0E8F8031C0C1CDBB23033DBB2181C00F0C2FC3B697C69181C211C5B4A5C4B01F0D8F81C1C131C3B617C612C2000F0B3FC3B697C69181C211C564A7A
:40074000564B01F0C9F8031C0C1CDBB23033DBB2181C00F0A3FC3B697C69181C211C4E4A4E4B01F0B9F81C1C131C3B617C613B697C69181C211C4A4A4A4B01F0ADF8031C1A
:400780000C1CDBB23033DBB2181C00F087FC3B697C69181C211C424A424B01F09DF81C1C131C3B617C613B697C69181C211C3E4A3E4B01F091F8031C0C1CDBB23033DBB22B
:4007C000181C00F06BFC3B697C69181C211C364A364B01F081F81C1C131C3B617C612C2000F05CFC3B697C69181C211C6422002301F072F8031C0C1CDBB23033DBB2181C9F
:4008000000F04CFC3B697C69181C211C6422002301F062F81C1C131C3B617C613B697C69181C211C0A22002301F056F8031C0C1CDBB23033DBB2181C00F030FC3B697C698D
:40084000181C211C0A22002301F046F81C1C131C3B617C613B697C69DBB23033DBB2181C00F01CFC144B181C00F0ECFBBD4607B0F0BDC046C046C046B80B000000000000C1
:4008800000E1F50500000000809698000000000040420F0000000000A0860100000000001027000000000000E803000000000000C42100002422000028220000C046C04654
:4008C00080B582B000AF012000F09CFE031C1A1CBB1D1A80204B1B88BA1D12889A4235D0BB1D1A881D4B9A4203D0BB1D1B88052B03D81B4B05221A7022E0BB1D1B88142B26
:4009000003D8174B04221A701AE0BB1D1B88282B03D8134B03221A7012E0BB1D1B883C2B03D80F4B02221A700AE0BB1D1B88642B03D80B4B01221A7002E0094B00221A70AF
:40094000054BBA1D12881A80012300E000235BB2181CBD4602B080BD0A010020FFFF00000C01002080B500AFFEE7C04680B586B000AF224B7B61224B3B61204B7B6135E0D5
:400980003B691B68FB603B695B68BB603B699B683B6000237B600CE0FB681A68BB681A60BB680433BB60FB680433FB607B6804337B607A683B689A42EED13B69DB683B6084
:4009C00000237B6008E0BB6800221A60BB680433BB607B6804337B607A683B689A42F2D13B6910333B617B69013B7B617B69002BC6D101F0A5FBFFF707FDFEE7010000002E
:400A00003C24000080B582B000AF00237B600FE07B68032B04D8104B7A689200D35800E00E4B0F4A796889008B507B6801337B607B682F2BECD9FFF799FB0A4B00221A6026
:400A40008023DB058022D205126801210A431A60BD4602B080BDC046000000006509000000000020C000002080B582B000AF786039607A683B68101C00211A1C01F086FBB0
:400A8000BD4602B080BDC04680B586B000AF7860396000233B6100237B612EE07B699B007A68D3181B68BB603B1C0F33BA681A70BB68FF229343BB6017E03B695B003A68EB
:400AC000D3181B781A1CBB68D3183A69520039688A1852781A703B6901333B613B1C0F331A783B1C0F33013A1A703B1C0F331B78002BE2D17B6901337B617B69092BCDD9EF
:400B0000BD4606B080BDC04680B500AF084B094A1A60094B08221A60084B094A1A60094B074A1A60012000F00FF8BD4680BDC0468800104002012400C000104000031A40B4
:400B40000100400040031A4080B584B000AF021CFB1D1A700B4B1B68FB60FB1D1B78002B05D0FB68802212061343FB6003E0FB685B005B08FB60034BFA681A60BD4604B0D2
:400B800080BDC04680031A4090B583B000AF01235B42181C00F056F801235B42181C00F067F8FC1D00F0F2F8031C23700A4B0A4A1278D2B210210A43D2B21A70FB1D1B78E4
:400BC000181C00F0E7F800F06DF8002000F020F8BD4603B090BDC04693000F4080B500AFBD4680BD80B500AF064B1B78002B04D1FFF7CAFF034B01221A70FFF7EFFFBD46FD
:400C000080BDC046FC00002080B500AFBD4680BD80B582B000AF021CFB1D1A70034BFA1D12781A70BD4602B080BDC04683000F4080B500AF024B1B78DBB2181CBD4680BD53
:400C400063000F4080B582B000AF7860024B7A681A60BD4602B080BD80200F4080B500AF024B1B68181CBD4680BDC04600210F4080B582B000AF7860024B7A681A60BD4612
:400C800002B080BD00200F4080B500AF034B1B78034B1B68181CBD4680BDC04600000F4000210F4080B500AF01E0FFF7D7FFFFF7BFFF031C1A1C08231340F6D1BD4680BDE8
:400CC00080B582B000AF786000F04AF87B68181C00F008F8032000F011F800F037F8BD4602B080BD80B582B000AF7860024B7A681A64BD4602B080BD0000002090B585B079
:400D000000AF021CFB1D1A700623FB603C1C0B3400F03CF8031C23700B4B0B4A1268C021101C8843011CFA1D1078FA68041C9440221C0A431A603B1C0B331B78181C00F0F3
:400D400029F8BD4605B090BD00E400E080B500AF024B01221A60BD4680BDC04600E100E080B500AF024B01221A60BD4680BDC04680E100E0000000000230800804D0C046CB
:400D80000138FDD1C046C046C0467047EFF3108072B6704780F310887047C046C046C04680B584B000AF021C3960FB1D1A7080239B05FB60FB1D1B781F2B02D9002000F04F
:400DC00069F8FB1D1B7810339B00FA68D3181B68BB60FB1D1B7810339B00FA68D3183A681A60BB68181CBD4604B080BD90B587B000AF0A1CFB1D011C1970BB1D1A70BB1D98
:400E00001B78032B02D9002000F044F8FB1D1B781F2B02D9002000F03DF8FB1D1A7803231340DB0006337B613C1C1334FFF7AEFF031C2370FB1D1B789B08DBB29B001449DB
:400E40005B181B68FB607B690322111C99400B1CDA43FB681340FB60BB1D1A787B69111C99400B1CFA681343FB60FB1D1B789B08DBB29B00064A9B18FA681A603B1C13333D
:400E80001B78181CFFF786FFBD4607B090BDC04600E400E080B582B000AF021CFB1D1A7001BEBD4602B080BD80B582B000AF786008E00C4B1B68181CFFF75EFF7B680A4A2A
:400EC0009B187B607A6880231B029A42F1D8074B1B687A685343181CFFF74EFFBD4602B080BDC046DC0000200080FFFFD400002080B582B000AF021CBB1D1A80BB1D1B88D2
:400F0000044A12785343181CFFF736FFBD4602B080BDC046D800002080B500AF2820FFF7C3FF032000F05EF90520FFF7BDFF032000F058F90F20FFF7B7FF032000F052F932
:400F40000120FFF7B1FF022000F04CF90520FFF7ABFF062000F0D8F80E2000F0D5F82C2000F0D2F8082000F0CFF8012000F0CCF80C2000F0C9F8032000F0C6F80520FFF73A
:400F800093FF034B181C00F0DDF9BD4680BDC046CC23000080B500AF0C2000F0B5F8024B01221A70BD4680BDFD00002080B500AF064B1B78002B04D1FFF7AEFF034B012242
:400FC0001A70FFF7E7FFBD4680BDC046FE00002080B582B000AF0A1CFB1D011C1970BB1D1A70FB1D1B78012B10D002DC002B05D024E0022B12D0032B18D01FE0BB1D1B78A3
:40100000803BDBB2181C00F07FF817E0BB1D1B78403BDBB2181C00F077F80FE0BB1D1B786C3BDBB2181C00F06FF807E0BB1D1B782C3BDBB2181C00F067F8C046BD4602B033
:4010400080BDC04680B584B000AF78603B1C0F3301221A703B1C0E337A6812781A7015E03B1C0E331B78181C00F026F83B1C0F331B787A68D2183B1C0E3312781A703B1C0C
:401080000F331A783B1C0F3301321A703B1C0E331B78002BE4D1BD4604B080BD80B582B000AF021CFB1D1A70FB1D1B78181C00F003F8BD4602B080BD80B584B000AF021C3F
:4010C000FB1D1A703B1C0F33FA1D127812091A703B1C0F331B78181C00F04AF86420FFF707FF3B1C0F33FA1D11780F220A401A703B1C0F331B78181C00F03AF89620FFF7F1
:40110000F7FEBD4604B080BD80B584B000AF021CFB1D1A703B1C0F33FA1D127812091A703B1C0F331B78181C00F05CF86420FFF7DFFE3B1C0F33FA1D11780F220A401A70D6
:401140003B1C0F331B78181C00F04CF8034B181CFFF7CEFEBD4604B080BDC046DC05000080B500AF0120FFF79FFEBD4680BDC04680B582B000AF021CFB1D1A70184B184A43
:401180001278D2B220210A43D2B21A70144B144A1278D2B240218A43D2B21A70104B104A1278D2B20F218A43D2B21A700C4B0C4A1278D1B2FA1D12780A43D2B210210A4306
:4011C000D2B21A700120FFF793FE054B044A1278D2B210218A43D2B21A70BD4602B080BD70000F4080B582B000AF021CFB1D1A70144B144A1278D2B260218A43D2B21A70D3
:40120000104B104A1278D2B20F218A43D2B21A700C4B0C4A1278D1B2FA1D12780A43D2B210210A43D2B21A700120FFF761FE054B044A1278D2B210218A43D2B21A70BD46F7
:4012400002B080BD70000F4090B587B000AF021CBB1D1A803B1C173300221A7020E03B1C17331C78BB1D1B88181C0A2100F0C8FA0B1C9BB2DBB23033DAB23B1C08331A5506
:40128000BC1DBB1D1B88181C0A2100F075FA031C23803B1C17331A783B1C173301321A70BB1D1B88092BDAD83B1C17331C78BB1D1B88181C0A2100F0A3FA0B1C9BB2DBB2CB
:4012C0003033DAB23B1C08331A553B1C16333A1C173212781A7016E03B1C16331A783B1C17331B78D31A3A1C17321278391C0831895C3A1C1032D1543B1C17331A783B1C7F
:401300001733013A1A703B1C17331B78002BE3D13B1C16331B783A1C083211783A1C1032D1543B1C16331B7801333A1C10320021D1543B1C1033181CFFF784FEBD4607B03D
:4013400090BDC04680B584B000AF7860FFF708FF4020FFF7D9FE3B1C0F3300221A700FE03B1C0F331B787A68D3181B78181CFFF7A3FE3B1C0F331A783B1C0F3301321A70F4
:401380003B1C0F331B783F2BEAD9FFF7E9FE8020FFF7BAFEBD4604B080BDC04680B500AF064B1B78002B04D100F00AF8034B01221A7000F005F9BD4680BDC046FF000020A7
:4013C00090B585B000AF0E200321FFF70FFD5E4B0E20191CFFF7E4FC5C4B03221A605C4B5C4A1A605C4B5D4A1A605D4B5D4A1A605D4B00221A605D4B5D4A1A605D4B5E4A93
:401400001A605E4B5D4A1268802149020A431A605B4B5B4A1268802149020A431A60594B00221A60584B00221A60584B01221A60574B02221A60574B1B687B607A68564BBB
:4014400013407B607B68012213437B60514B7A681A60524B02221A600023FB606DE0504BFA689200D258DC239B0113407B604D4AFB68D3181B787A6813437B60FB689B00FE
:40148000494A9B187A681A60454BFA689200D258012313400AD03B4B3A4A1168FA680120041C9440221C92B20A431A603C4BFA689200D258022313400AD0334B324A1168DE
:4014C000FA680120041C9440221C92B20A431A60334BFA689200D25880239B00134003D080235B00BB6002E080235B01BB602C4BFA689200D25880235B00134005D12B4BE5
:40150000FA6852000021D15204E0284BFA6852000021D152BB68264A5343264A9B18181C254900F077F9031C9BB219B2234BFA689200D150FB680133FB60FB68012B8ED974
:40154000BD4605B090BDC0464916000020001A4000001A407020001004001A408C00008018001A400000FF071C001A4010001A4064001E0014001A400200020000031A407A
:4015800040031A4028021A4038021A4018021A40000F1A4030001A40FFFFFFDF040F1A400C2400001424000080001A402001002010270000E40C0000C81900001801002002
:4015C00080B500AF074B1B68002B09DB054B054A1268802109060A431A600A20FFF788FCBD4680BD00001A4080B500AF044B044A1268802149020A431A60BD4680BDC04661
:4016000004001A4080B584B000AF78607B68012B02D90020FFF73EFC7B68012B08D87B689B00084A9B181B681B041B0CFB6001E00023FB60FB689BB21BB2181CBD4604B0C5
:4016400080BDC04680011A4080B582B000AF044B1B687B60024B7A681A60BD4602B080BD10021A4080B584B000AF021CFB1D1A700E4B1B68DAB23B1C0F3302218A431A702F
:40168000FB1D1B78DB18DAB202231340D9B23B1C0F333A1C0F3212780A431A70034B3A1C0F3212781A60BD4604B080BD0000044080B500AF074B03221A60074B802212066A
:4016C0001A60064B04221A60054B03221A60BD4680BDC046040100200000104008001040140F104080B500AF054B054A1168054A12680A43802109010A431A60BD4680BD46
:40170000080010400401002080B500AF064B1B78002B04D1FFF7CCFF034B01221A70FFF7E1FFBD4680BDC0460001002080B584B000AF021CFB1D1A700E4B1B68DAB23B1CD4
:401740000F3302218A431A70FB1D1B78DB18DAB202231340D9B23B1C0F333A1C0F3212780A431A70034B3A1C0F3212781A60BD4604B080BD00010440002934D0012300225A
:4017800010B488422CD301242407A14204D2814202D209011B01F8E7E400A14204D2814202D249005B00F8E7884201D3401A1A434C08A04202D3001B5C0822438C08A04286
:4017C00002D3001B9C082243CC08A04202D3001BDC082243002803D01B0901D00909E3E7101C10BC7047002801D00020C04307B4024802A14018029003BDC046D900000039
:401800000029F0D003B5FFF7B9FF0EBC4243891A1847C046002941D010B4041C4C40A44601230022002900D54942002800D5404288422CD301242407A14204D2814202D2B7
:4018400009011B01F8E7E400A14204D2814202D249005B00F8E7884201D3401A1A434C08A04202D3001B5C0822438C08A04202D3001B9C082243CC08A04202D3001BDC086F
:401880002243002803D01B0901D00909E3E7101C6446002C00D5404210BC7047002806D003DB0020C043400801E08020000607B4024802A14018029003BDC04619000000DC
:4018C0000029EBD003B5FFF7A7FF0EBC4243891A1847C0467047C046002B11D1002A0FD1002900D1002802D00021C943081C07B4024802A14018029003BDC046D9FFFFFF12
:4019000003B4684601B5029800F044F8019B9E4602B00CBC7047C0469C460304F0B51B0C17043F0C150C1E1C041C000C7E436B4347434543FB18300C1818874202D9802326
:401940005B02ED18030CED1863465C434A433604360CA118000480194919F0BDF0B583B0161C1F1C0090019100F04CF8041C0D1C221C2B1C301C391CFFF7CEFF009A019B38
:40198000121A8B410899201C0A604B60291C03B0F0BDC046F0B583B0141C1D1C0090019100F00CFA221C2B1C061C0F1CFFF7B4FF009A019B121A8B410899301C0A604B608E
:4019C000391C03B0F0BDC0461C2101231B04984201D3000C10391B0A984201D3000A08391B09984201D30009043902A2105C40187047C0460403020201010101000000003F
:401A000000000000F0B544465F4656464D46F0B41C1C85B0002900DADBE00F1C0021061C8A46101C191C002C00DAC9E00196009089468046002951D1B84200D871E0FFF766
:401A4000C3FF002809D020234546311C1B1A85408740D940A8460F4386404246150C13041B0C291C381C9B46FFF786FE5B464343041C291C381C9946FFF7C2FE330C08040D
:401A80001843814509D94044631E804500D978E1814500D875E1023C40444946411A8946081C291CFFF768FE5A464243071C291C48469346FFF7A4FE36040904360C0E438D
:401AC000B34507D946447B1EB04502D8023FB34500D81F1C24042743002403E0B94211D9002400275246381C211C002A03D03B1C00215842A14105B03CBC90469946A246A3
:401B0000AB46F0BD081CFFF75FFF041E00D0BFE0B94500D242E1019D0099071C8D424741E0E7002804D101200021FFF725FE80464046FFF749FF002852D1414644460B0446
:401B40003C1B1B0CA3460D0C00930124291C5846FFF712FE009F81464743291C5846FFF74FFE330C090419438F4208D94B464144013B884502D88F4200D91AE19946C91B73
:401B80008B46081C291CFFF7F7FD009B291C4343071C58460093FFF733FE3604009D0904360C0E43B54207D946447B1EB04502D8023FB54200D81F1C49460E04374391E702
:401BC0005246D243031C0C1C924600215842A1412CE7002746428F41012149428A4620E720231B1A4246351C82403C1CDD40DC4087402B1C150C3B43291C8640201C00933B
:401C000017049046FFF7B8FD3F0C011C794381468B46201C291CFFF7F3FD009C0904230C19438B450CD94B464144013B884500D9BDE08B4500D8BAE0022252429144414413
:401C40005C460C1B201C291C0194FFF795FD391C4143041C8B460198291CFFF7D1FD009A090413041B0C19438B4509D94144631E884500D997E08B4500D894E0023C41449C
:401C80005B46CB1A49469B460B041C4300975DE7009D20231B1A4A468240DD401543391C009AD94082408846311C0092D9403A1C82400B1C134301932F0C2B041B0C391C6A
:401CC00040460293FFF758FD029A81464243391C40469346FFF794FD019A0904130C19438B450AD94B464919013B8D425DD88B455BD902235B42994449195A468A1A101CDD
:401D0000391C0392FFF738FD029B80464343391C03989B46FFF774FD019A090413041B0C19438B450AD943464919013B8D4238D88B4536D902235B42984449195D464D1B88
:401D4000AB464946009D0F04424617432A04120C3B042D0C1B0C380C111C594342436B436843D3180D0C5B198C469A4202D98022520280181D0C401983450CD303D00024CC
:401D8000B0E61C1C89E665462A041B04120C9B18A6409E42F3D2013F0024A3E600240127A0E69846CAE71C1C6AE79946A5E7994646E70222524291444144E0E6F0B55F4622
:401DC00056464D464446F0B40D1C85B0061C924698460290019103921F1C141C8346A946002B59D1AA4269D9101CFFF7EDFD00280AD020231B1A311CD94085400B1C2B43AB
:401E0000864084409946B346250C23041B0C291C48469846FFF7B0FC4646071C4643291C4846FFF7EDFC5A460904130C19438E4209D909197B1E8C4200D957E18E4200D868
:401E400054E1023F0919891B8946081C291CFFF793FC43464343061C291C48469846FFF7CFFC5A46130409041B0C1943884508D90919731E8C4200D936E1023E884500D87B
:401E800032E1380430430027391C05B03CBC90469946A246AB46F0BD019A934262D8181CFFF792FD041E60D1019B9F4200D22CE1029F03998F4260410027E5E7002A04D149
:401EC00001200021FFF758FC041C201CFFF77CFD002800D0B9E023042D1B1B0CA946260C98460127311C4846FFF746FC41464143051C8A464846311CFFF782FC5A46080433
:401F0000130C1843824507D900196B1E844202D8824500D910E11D1C5346C31A181C311C9A46FFF729FC41464143814688465046311CFFF765FC5A46130409041B0C194361
:401F400088450BD94B460919013B8C4200D9CFE0884500D8CCE002235B42994428044946084391E7002700208EE720231B1A424657468240DF401743524682400192321C2E
:401F8000DA40291CD9408540131C2B4302933D0C3B041B0C8846081C291C9A46FFF7ECFB534643438146291C40469B46FFF728FC029A0904130C19438B4506D94B46C9191D
:401FC000013B8F4200D8ABE099465A468A1A101C291C9346FFF7D0FB53464343291C804658469A46FFF70CFC029A090415042D0C29438A4506D94346C919013B8F4200D838
:4020000086E098465746CF1BBA464946019F0804424610433D042D0C03043F0C1B0C020C291C594355437B437A43EB180F0CDB198C469D4202D980277F02D2191D0C521985
:4020400092455FD356D000271EE720231B1A311C2F1CD940DF4085400B1C84402B4386400193B3462304260C1B0C381C311C9846FFF782FB42464243051C311C381C914634
:40208000FFF7BEFB019F09043B0C1943894507D909196B1E8C424DD889454BD9023D09194A468A1A101C311C9246FFF765FB43464343071C311C50469946FFF7A1FB019A86
:4020C000090413041B0C1943894507D909197B1E8C422DD889452BD9023F09194B46CB1A2D0499462F43FDE61E1CCAE61F1CAAE6994633E761460A041B04120C9B18A640B4
:402100009E42A0D201380027BEE600270120BBE68A4500D875E702235B429844C91971E78B4500D850E702235B429944C9194CE71F1CD3E71D1CB3E7023D0019ECE6C046FA
:4021400070B50E4B0E4D0024ED1AAD101E1CAC4204D0A300F35898470134F8E700F05CF9084B094D0024ED1AAD101E1CAC4204D0A300F35898470134F8E770BD2424000099
:4021800024240000242400002C240000031C8218934202D019700133FAE770470000000064F8FF7F01000000535732207072657373656400496E697469616C697A65642E19
:4021C0002E000000202020202020202020202020202020200000000053656C656374207072657373656400004C65667420707265737365640000000052696768742070729A
:402200006573736564000000557020707265737365640000446F776E207072657373656400000000743A2000757300000400000000300F40000400400F40000401000F40E1
:402240002F300F4014310F4032320F4019330F400B400F4008410F4006420F4009430F4002600F40830D402449FF4AFF4BFF4F0150185A045B045D095F01604062406440C9
:402280006540668068806A806C806E80930195019702AF04B304B501B702C025C9FFCAFFCBFFCD83CE03CF01D018D904DA04DD09DF01E040E240E440E540E680E880EA80EE
:4022C000EC80EE802608270A2E80360837024101420846084E0269816A206B107090814083108C10CA10CCC0D025D210402449FF4AFF4BFF4D834E034F0150185A045D095E
:402300005F016040624064406540668068806A806C806E8087019301B701BF40C024C5ECC720C823C9FFCAFFCBFFCD83CE03CF01D018D401D904DA04DB04DD99DF01E040CD
:40234000E240E440E540E680E880EA80EC80EE80224031023A08410142084502460849055103520259055A8095029A08A602AA10AB08AE88B101B480CC01CE02D0A5D60B5D
:40238000EC0403080F045B206F1082018320C040C280D480DA80E2A056019A01AB10AF0CD620E840EA20EC405A0160048C04D602D802E4025F0862809B08A280AA80B201EF
:4023C000B708D603EC03100111010000030408080804030010080404040810000000101010100000000E0A0C0A0A000003070C0C0C07030010180C0C0C181000000E080E89
:40240000020E00000004040400040000000200000012000013000000F8B5C046F8BC08BC9E46704799030000050A0000F8B5C046F8BC08BC9E467047710300005024000036
:40244000C800002018000000480000000000000000000000C0F1FF0F00366E01C05D0000180000000000E02E0000000000000000000000000000000000000000000000006D
:40248000000000000000000000000000000000000000000000000000000000000000000000000000000000000000000000000000000000000000000000000000000000001C
:4024C00000000000000000000000000000000000000000000000000000000000000000000000000000000000000000000000000000000000000000000000000000000000DC
:40250000000000000000000000000000000000000000000000000000000000000000000000000000000000000000000000000000000000000000000000000000000000009B
:40254000000000000000000000000000000000000000000000000000000000000000000000000000000000000000000000000000000000000000000000000000000000005B
:0200000490303A
:020000003BFBC8
:0200000490402A
:200000000000000000000000000000000000000000000000000000000000000000000000E0
:0200000490501A
:0C000000000204C81193110104D44D8EBD
:0200000490600A
:0100000001FE
:00000001FF