:400000000010002011000000D50D0000D50D000080B500AF00F00AFF80B584B000AF021CFB1D1A70204A3B1C0B3312781A701F4A3B1C0A3312781A700423013BFB6018E02C
:400040001B4B1868391C0B31FA68131C5B009B18C3185B780B70164B1868391C0A31FA68131C5B009B18C3189B780B70FB68013BFB60FB68002B0ADB0D4B1968FA68131CF1
:400080005B009B185B5CFA1D12789A42D8D9094B3A1C0B3212781A60074B3A1C0A3212781A60BD4604B080BDCCF1FF0FCDF1FF0FD00000201CFF0B4020FF0B4080B500AF4B
:4000C0001D4B1D4A12688021C9020A431A601820FFF7A2FF194B19221A60052001F0C0F8174B184A1278D2B21A60052001F074F9114B114A1168144A0A401A60134B144AF1
:400100001A60144B20221A60134B10221A60134B21221A60124B822212061A60114B124A1A60124B124A1A60124B134A1A60134B134A1A60BD4680BD00010B402CFF0B40A2
:4001400028FF0B40E5F1FF0FFFFFFBFF04010B40060000800C0202401C0202403002024008010B40000002400200008040000240CF000080040002403F06008044000240BD
:40018000DB0500C080B582B000AF72B65A4B01221A70FB1D00221A7023E0FB1D1A78131C5B009B185B00554A9B183B603B681A78597809020A43997809040A43DB781B06DC
:4001C00013431A1C3B6819795B791B020B439BB2101C191C00F0A8FEFB1D1A78FB1D01321A70FB1D1B78012BD7D9454A454B101C191C00F0A9FE444B802252001A80434BF3
:4002000001221A70424B434A1A60434B03221A60424BCC2292051A60414B424A1A60424BA1221A60414B424A1A60424B20221A60414B19221A60414B36221A60404B382209
:400240001A60404BC1221A603F4BD82212041A603E4B01221A603E4B60221A603D4B3E4A1A603E4B3E4A1A603E4B802212061A603D4B802292021A603C4B992212041A6081
:400280003B4BC02292021A603A4B992212041A60394B802292051A60384B992212041A60374B802252051A60364B01221A60364B02221A60354B354A1278D2B202210A4344
:4002C000D2B21A70324B324A1278D2B23C218A43D2B214210A43D2B21A702C4B2B4A1278D2B216210A43D2B21A70FFF7E7FE00F06BFEBD4602B080BD1C700F40D431000019
:40030000E03100000832000000600F4002600F40000001400300900004000140080001400C00014000EE30030000044008000440360043001800044000010440080104404B
:40034000180104400002044008020440180204400003044008030440800D1B0000500F400400990004500F4008500F4010500F4018500F4020500F4028500F4030500F40AF
:4003800038500F402000004000800F4000700F4001700F4010B5064C2378002B07D1054B002B02D0044800E000BF0123237010BD4801002000000000B030000008B5084BEE
:4003C000002B03D00748084900E000BF07480368002B03D0064B002B00D0984708BDC04600000000B03000004C010020C80000200000000080B590B000AF184B01221A70A9
:40040000002001F023FC031C9AB2154B1A80144B1B889BB21BB20020191C01F039FC031C391D104A081C111C1A1C02F03DFA012001F08EF90C4B181C01F028F93B1D181C4F
:4004400001F074F8002000F089FE00F037FE012001F07EFCBD4610B080BDC046840100208A010020BC300000F030000090B583B000AFBB1D012252421A8000F01FFE00F028
:40048000D5FF804B181C00F091FE002001F060FC01F0B0FC01F0A6FA01F0CAFB01F0AAF80020002101F0B8F8774B181C01F0EEF80120072101F0B0F8002001F013F9012037
:4004C00001F010F9022001F00DF9042001F00AF9052001F007F96D4B181C01F027F862B66B4B1B78DBB2002B26D0012001F094FC002001F0ABFB031C1A1C664B9A4217DD81
:4005000000F038FE031C5A42634B1A6000F0E8FD5F4B00221A70002001F01AFC5E4B1B68181C00F0CDF85C4B1B68181C00F0ACFA002001F071FCD3E73C1D002001F086FB34
:40054000031C23803A1DBB1D0021525E00215B5E9A4203DDBB1D3A1D12881A800020002101F05AF84D4B181C01F090F80020002101F052F83B1D1B88181C01F089F90020B9
:40058000052101F049F8464B181C01F07FF8BB1D1B88181C01F07CF900F0CAFB031C002B6CD0404B1B78DBB2012B10D10120002101F032F8394B181C01F068F80120002106
:4005C00001F02AF8384B181C01F060F856E0354B1B78DBB2022B10D10120002101F01CF82E4B181C01F052F80120002101F014F82E4B181C01F04AF840E02A4B1B78DBB201
:40060000052B10D10120002101F006F8234B181C01F03CF80120002100F0FEFF244B181C01F034F82AE01F4B1B78DBB2042B10D10120002100F0F0FF184B181C01F026F857
:400640000120002100F0E8FF1A4B181C01F01EF814E0144B1B78DBB2032B0FD10120002100F0DAFF0D4B181C01F010F80120002100F0D2FF104B181C01F008F8C82000F055
:4006800087FE2DE7F5030000FC3000000C31000084010020FF0700008C010020283100003C3100008801002044310000543100006431000074310000803100000000000094
:4006C000F0B587B000AFF860FB68191C00231A1C0B1C141CD80E65017D607D6805437D60580138603B687C685B1A9441980FA60006439D002B1C341C5B185441181C211C97
:40070000CA4BC94A01F05EFC031C0C1C3B617C61D34B181C00F00AFFFB68181CD14901F0A1FB031C3033181C00F096FEFB68181CCC4901F0DBFB0B1CFB60FB68181CCA4924
:4007400001F090FB031C3033181C00F085FEFB68181CC54901F0CAFB0B1CFB60FB68181CC24901F07FFB031C3033181C00F074FEFB68181CBD4901F0B9FB0B1CFB60FB68AB
:40078000181CBB4901F06EFB031C3033181C00F063FEFB68181CB64901F0A8FB0B1CFB60FB68181CB34901F05DFB031C3033181C00F052FEFB68181CAE4901F097FB0B1CEA
:4007C000FB60FB68181CAC4901F04CFB031C3033181C00F041FEFB68181CA74901F086FB0B1CFB60FB68181CFA23990001F03AFB031C3033181C00F02FFEFB68181CFA2380
:40080000990001F073FB0B1CFB60FB68181C642101F028FB031C3033181C00F01DFEFB68181C642101F062FB0B1CFB60FB68181C0A2101F017FB031C3033181C00F00CFEEC
:40084000FB68181C0A2101F051FB0B1CFB60FB683033181C00F000FE884B181C00F066FE3B697C69181C211C714A724B01F0AAFB031C0C1C3033181C00F0EEFD3B697C696A
:40088000181C211C6A4A6B4B01F09CFB1C1C131C3B617C613B697C69181C211C664A674B01F090FB031C0C1C3033181C00F0D4FD3B697C69181C211C5F4A604B01F082FBC2
:4008C0001C1C131C3B617C613B697C69181C211C5B4A5C4B01F076FB031C0C1C3033181C00F0BAFD3B697C69181C211C544A554B01F068FB1C1C131C3B617C612C2000F043
:40090000ABFD3B697C69181C211C4F4A4F4B01F059FB031C0C1C3033181C00F09DFD3B697C69181C211C484A484B01F04BFB1C1C131C3B617C613B697C69181C211C444A77
:40094000444B01F03FFB031C0C1C3033181C00F083FD3B697C69181C211C3D4A3D4B01F031FB1C1C131C3B617C613B697C69181C211C394A394B01F025FB031C0C1C3033AD
:40098000181C00F069FD3B697C69181C211C324A324B01F017FB1C1C131C3B617C612C2000F05AFD3B697C69181C211C6422002301F008FB031C0C1C3033181C00F04CFD96
:4009C0003B697C69181C211C6422002301F0FAFA1C1C131C3B617C613B697C69181C211C0A22002301F0EEFA031C0C1C3033181C00F032FD3B697C69181C211C0A22002327
:400A000001F0E0FA1C1C131C3B617C613B693033181C00F021FD1A4B181C00F087FDBD4607B0F0BDC046C046B80B00000000000000E1F505000000008096980000000000F6
:400A400040420F0000000000A0860100000000001027000000000000E8030000000000009031000000CA9A3B00E1F5058096980040420F00A086010010270000B4310000DF
:400A8000C0310000C046C046F0B587B000AFF860FB68191C00231A1C0B1C141CD80E65017D607D6805437D60580138603B687C685B1A9441980FA60006439D002B1C341C4F
:400AC0005B185441181C211C884B874A01F07AFA031C0C1C3B617C610120002100F09CFD8F4B181C00F0D2FD0120002100F094FD8C4B181C00F0CAFD3B697C69181C211C9D
:400B00007B4A7C4B01F05EFA031C0C1CDBB23033DBB2181C00F0E6FD3B697C69181C211C734A744B01F04EFA1C1C131C3B617C613B697C69181C211C6F4A704B01F042FAEB
:400B4000031C0C1CDBB23033DBB2181C00F0CAFD3B697C69181C211C674A684B01F032FA1C1C131C3B617C613B697C69181C211C634A644B01F026FA031C0C1CDBB23033CD
:400B8000DBB2181C00F0AEFD3B697C69181C211C5B4A5C4B01F016FA1C1C131C3B617C612C2000F09FFD3B697C69181C211C564A564B01F007FA031C0C1CDBB23033DBB2E9
:400BC000181C00F08FFD3B697C69181C211C4E4A4E4B01F0F7F91C1C131C3B617C613B697C69181C211C4A4A4A4B01F0EBF9031C0C1CDBB23033DBB2181C00F073FD3B6965
:400C00007C69181C211C424A424B01F0DBF91C1C131C3B617C613B697C69181C211C3E4A3E4B01F0CFF9031C0C1CDBB23033DBB2181C00F057FD3B697C69181C211C364A26
:400C4000364B01F0BFF91C1C131C3B617C612C2000F048FD3B697C69181C211C6422002301F0B0F9031C0C1CDBB23033DBB2181C00F038FD3B697C69181C211C64220023EC
:400C800001F0A0F91C1C131C3B617C613B697C69181C211C0A22002301F094F9031C0C1CDBB23033DBB2181C00F01CFD3B697C69181C211C0A22002301F084F91C1C131CE4
:400CC0003B617C613B697C69DBB23033DBB2181C00F008FD144B181C00F0D8FCBD4607B0F0BDC046C046C046B80B00000000000000E1F50500000000809698000000000030
:400D000040420F0000000000A0860100000000001027000000000000E80300000000000028310000C8310000CC310000C046C04680B582B000AF012000F088FF031C1A1C7B
:400D4000BB1D1A80204B1B88BA1D12889A4235D0BB1D1A881D4B9A4203D0BB1D1B88052B03D81B4B05221A7022E0BB1D1B88142B03D8174B04221A701AE0BB1D1B88282B02
:400D800003D8134B03221A7012E0BB1D1B883C2B03D80F4B02221A700AE0BB1D1B88642B03D80B4B01221A7002E0094B00221A70054BBA1D12881A80012300E000235BB251
:400DC000181CBD4602B080BD86010020FFFF00008801002080B500AFFEE7C04680B584B000AF78600F4B1A687B68D3181A1C0E4BD31A802B09DC0B4B1B68FB60094B1A6800
:400E00007B68D218074B1A6007E001F00FFD031C0C221A6001235B42FB60FB68181CBD4604B080BDCC000020A801002080B586B000AF224B7B61224B3B61204B7B6135E04A
:400E40003B691B68FB603B695B68BB603B699B683B6000237B600CE0FB681A68BB681A60BB680433BB60FB680433FB607B6804337B607A683B689A42EED13B69DB683B60BF
:400E800000237B6008E0BB6800221A60BB680433BB607B6804337B607A683B689A42F2D13B6910333B617B69013B7B617B69002BC6D101F0C1FCFFF7D9FAFEE7010000007D
:400EC0001434000080B582B000AF00237B600FE07B68032B04D8104B7A689200D35800E00E4B0F4A796889008B507B6801337B607B682F2BECD9FFF745F90A4B00221A60D0
:400F00008023DB058022D205126801210A431A60BD4602B080BDC04600000000D50D000000000020C000002080B582B000AF786039607A683B68101C00211A1C01F0ABFC51
:400F4000BD4602B080BDC04680B586B000AF7860396000233B6100237B612EE07B699B007A68D3181B68BB603B1C0F33BA681A70BB68FF229343BB6017E03B695B003A6826
:400F8000D3181B781A1CBB68D3183A69520039688A1852781A703B6901333B613B1C0F331A783B1C0F33013A1A703B1C0F331B78002BE2D17B6901337B617B69092BCDD92A
:400FC000BD4606B080BDC04680B500AF084B094A1A60094B08221A60084B094A1A60094B074A1A60012000F00FF8BD4680BDC0468800104002012400C000104000031A40F0
:401000000100400040031A4080B584B000AF021CFB1D1A700B4B1B68FB60FB1D1B78002B05D0FB68802212061343FB6003E0FB685B005B08FB60034BFA681A60BD4604B00D
:4010400080BDC04680031A4090B583B000AF01235B42181C00F06CF801235B42181C00F07DF8FC1D00F006F9031C23700A4B0A4A1278D2B210210A43D2B21A70FB1D1B78DE
:40108000181C00F0FBF800F083F8002000F036F8BD4603B090BDC04693000F4080B500AF054B054A1278D2B2802149420A43D2B21A70BD4680BDC04671000F4080B500AF83
:4010C000064B1B78002B04D1FFF7BEFF034B01221A70FFF7E3FFBD4680BDC0466401002080B500AF044B044A1278D1B27F220A40D2B21A70BD4680BD71000F4080B582B0CD
:4011000000AF021CFB1D1A70034BFA1D12781A70BD4602B080BDC04683000F4080B500AF024B1B78DBB2181CBD4680BD63000F4080B582B000AF7860024B7A681A60BD46EC
:4011400002B080BD80200F4080B500AF024B1B68181CBD4680BDC04600210F4080B582B000AF7860024B7A681A60BD4602B080BD00200F4080B500AF034B1B78034B1B6865
:40118000181CBD4680BDC04600000F4000210F4080B500AF01E0FFF7D7FFFFF7BFFF031C1A1C08231340F6D1BD4680BD80B582B000AF786000F04AF87B68181C00F008F8B0
:4011C000032000F011F800F037F8BD4602B080BD80B582B000AF7860024B7A681A64BD4602B080BD0000002090B585B000AF021CFB1D1A700623FB603C1C0B3400F03AF8EF
:40120000031C23700B4B0B4A1268C021101C8843011CFA1D1078FA68041C9440221C0A431A603B1C0B331B78181C00F027F8BD4605B090BD00E400E080B500AF024B012260
:401240001A60BD4680BDC04600E100E080B500AF024B01221A60BD4680BDC04680E100E00230800804D0C0460138FDD1C046C046C0467047EFF3108072B6704780F31088D8
:401280007047C046C046C04680B584B000AF021C3960FB1D1A7080239B05FB60FB1D1B781F2B02D9002000F069F8FB1D1B7810339B00FA68D3181B68BB60FB1D1B781033B3
:4012C0009B00FA68D3183A681A60BB68181CBD4604B080BD90B587B000AF0A1CFB1D011C1970BB1D1A70BB1D1B78032B02D9002000F044F8FB1D1B781F2B02D9002000F08E
:401300003DF8FB1D1A7803231340DB0006337B613C1C1334FFF7AEFF031C2370FB1D1B789B08DBB29B0014495B181B68FB607B690322111C99400B1CDA43FB681340FB60E9
:40134000BB1D1A787B69111C99400B1CFA681343FB60FB1D1B789B08DBB29B00064A9B18FA681A603B1C13331B78181CFFF786FFBD4607B090BDC04600E400E080B582B073
:4013800000AF021CFB1D1A7001BEBD4602B080BD80B582B000AF786008E00C4B1B68181CFFF75EFF7B680A4A9B187B607A6880231B029A42F1D8074B1B687A685343181C49
:4013C000FFF74EFFBD4602B080BDC046E00000200080FFFFD800002080B582B000AF021CBB1D1A80BB1D1B88044A12785343181CFFF736FFBD4602B080BDC046DC0000205A
:4014000080B500AF00F03EF8BD4680BD80B500AF054B054A1268802109060A431A6000F017F8BD4680BDC0460000074080B500AF064B1B78002B04D1FFF7E2FF034B012252
:401440001A70FFF7E3FFBD4680BDC0466801002080B500AFBD4680BD80B582B000AF7860C046064B1A680F231340082BF9D0044B7A681A60BD4602B080BDC04608020740DB
:401480004002074080B500AF174B184A1A60184B00221A60174B01221A60174B07221A60164B07221A60164B00221A60154B01221A60154B154A1A60154B00221A60154BEB
:4014C00000221A60144B00221A60144B00221A60134B00221A60134B00221A60124B00221A60BD4680BDC046000007400B0000024000074048000740000307400403074025
:401500001003074044000740000207400700008004020740880E0740C80E0740480F0740080F0740C80F0740880F074080B584B000AF78600023FB6009E07A68FB68D31830
:401540001B78181CFFF788FFFB680133FB607A68FB68D3181B78002BEFD1BD4604B080BD80B500AF2820FFF713FF032000F05EF90520FFF70DFF032000F058F90F20FFF745
:4015800007FF032000F052F90120FFF701FF022000F04CF90520FFF7FBFE062000F0D8F80E2000F0D5F82C2000F0D2F8082000F0CFF8012000F0CCF80C2000F0C9F80320BA
:4015C00000F0C6F80520FFF7E3FE034B181C00F0DDF9BD4680BDC0466C33000080B500AF0C2000F0B5F8024B01221A70BD4680BD7001002080B500AF064B1B78002B04D1D4
:40160000FFF7AEFF034B01221A70FFF7E7FFBD4680BDC0467101002080B582B000AF0A1CFB1D011C1970BB1D1A70FB1D1B78012B10D002DC002B05D024E0022B12D0032B26
:4016400018D01FE0BB1D1B78803BDBB2181C00F07FF817E0BB1D1B78403BDBB2181C00F077F80FE0BB1D1B786C3BDBB2181C00F06FF807E0BB1D1B782C3BDBB2181C00F0B5
:4016800067F8C046BD4602B080BDC04680B584B000AF78603B1C0F3301221A703B1C0E337A6812781A7015E03B1C0E331B78181C00F026F83B1C0F331B787A68D2183B1C58
:4016C0000E3312781A703B1C0F331A783B1C0F3301321A703B1C0E331B78002BE4D1BD4604B080BD80B582B000AF021CFB1D1A70FB1D1B78181C00F003F8BD4602B080BD83
:4017000080B584B000AF021CFB1D1A703B1C0F33FA1D127812091A703B1C0F331B78181C00F04AF86420FFF757FE3B1C0F33FA1D11780F220A401A703B1C0F331B78181CF3
:4017400000F03AF89620FFF747FEBD4604B080BD80B584B000AF021CFB1D1A703B1C0F33FA1D127812091A703B1C0F331B78181C00F05CF86420FFF72FFE3B1C0F33FA1DB0
:4017800011780F220A401A703B1C0F331B78181C00F04CF8034B181CFFF71EFEBD4604B080BDC046DC05000080B500AF0120FFF7EFFDBD4680BDC04680B582B000AF021C37
:4017C000FB1D1A70184B184A1278D2B220210A43D2B21A70144B144A1278D2B240218A43D2B21A70104B104A1278D2B20F218A43D2B21A700C4B0C4A1278D1B2FA1D1278A8
:401800000A43D2B210210A43D2B21A700120FFF7E3FD054B044A1278D2B210218A43D2B21A70BD4602B080BD70000F4080B582B000AF021CFB1D1A70144B144A1278D2B24A
:4018400060218A43D2B21A70104B104A1278D2B20F218A43D2B21A700C4B0C4A1278D1B2FA1D12780A43D2B210210A43D2B21A700120FFF7B1FD054B044A1278D2B21021E4
:401880008A43D2B21A70BD4602B080BD70000F4090B587B000AF021CBB1D1A803B1C173300221A7020E03B1C17331C78BB1D1B88181C0A2100F01AFB0B1C9BB2DBB230331C
:4018C000DAB23B1C08331A55BC1DBB1D1B88181C0A2100F0C7FA031C23803B1C17331A783B1C173301321A70BB1D1B88092BDAD83B1C17331C78BB1D1B88181C0A2100F044
:40190000F5FA0B1C9BB2DBB23033DAB23B1C08331A553B1C16333A1C173212781A7016E03B1C16331A783B1C17331B78D31A3A1C17321278391C0831895C3A1C1032D154D2
:401940003B1C17331A783B1C1733013A1A703B1C17331B78002BE3D13B1C16331B783A1C083211783A1C1032D1543B1C16331B7801333A1C10320021D1543B1C1033181C9F
:40198000FFF784FEBD4607B090BDC04680B584B000AF7860FFF708FF4020FFF7D9FE3B1C0F3300221A700FE03B1C0F331B787A68D3181B78181CFFF7A3FE3B1C0F331A78D2
:4019C0003B1C0F3301321A703B1C0F331B783F2BEAD9FFF7E9FE8020FFF7BAFEBD4604B080BDC04680B500AF064B1B78002B04D100F00AF8034B01221A7000F005F9BD466D
:401A000080BDC0467201002090B585B000AF0E200321FFF75FFC5E4B0E20191CFFF734FC5C4B03221A605C4B5C4A1A605C4B5D4A1A605D4B5D4A1A605D4B00221A605D4B48
:401A40005D4A1A605D4B5E4A1A605E4B5D4A1268802149020A431A605B4B5B4A1268802149020A431A60594B00221A60584B00221A60584B01221A60574B02221A60574BE5
:401A80001B687B607A68564B13407B607B68012213437B60514B7A681A60524B02221A600023FB606DE0504BFA689200D258DC239B0113407B604D4AFB68D3181B787A6806
:401AC00013437B60FB689B00494A9B187A681A60454BFA689200D258012313400AD03B4B3A4A1168FA680120041C9440221C92B20A431A603C4BFA689200D25802231340B6
:401B00000AD0334B324A1168FA680120041C9440221C92B20A431A60334BFA689200D25880239B00134003D080235B00BB6002E080235B01BB602C4BFA689200D25880234B
:401B40005B00134005D12B4BFA6852000021D15204E0284BFA6852000021D152BB68264A5343264A9B18181C254900F0C9F9031C9BB219B2234BFA689200D150FB68013333
:401B8000FB60FB68012B8ED9BD4605B090BDC046351D000020001A4000001A407020001004001A408C00008018001A400000FF071C001A4010001A4002001E0014001A40B3
:401BC0000200020000031A4040031A4028021A4038021A4018021A40000F1A4030001A40FFFFFFDF040F1A40AC330000B433000080001A409C01002010270000E40C00009B
:401C0000C81900009401002080B500AF074B1B68002B09DB054B054A1268802109060A431A600A20FFF7D8FBBD4680BD00001A4080B500AF044B044A1268802149020A43F5
:401C40001A60BD4680BDC04604001A4080B584B000AF78607B68012B02D90020FFF78EFB7B68012B08D87B689B00084A9B181B681B041B0CFB6001E00023FB60FB689BB228
:401C80001BB2181CBD4604B080BDC04680011A4080B584B000AF78600A1CBB1C1A807B68012B02D90020FFF769FBBB1C1A881E4B79684900CB5A9BB29BB2D31A9AB2BB1C88
:401CC0001A80BB1C00215B5E184A5A43BB1C00215B5E002B08DD164B79688900CB58002B00DA01335B1008E0114B79688900CB58002B00DA01335B105B42D2180C4B796813
:401D00008900CB58101C191C00F0FAF8031C1A1C3B1C0E331A803B1C0E331B881BB2181CBD4604B080BDC0469C010020102700009401002080B582B000AF044B1B687B608B
:401D4000024B7A681A60BD4602B080BD10021A4080B584B000AF021CFB1D1A700E4B1B68DAB23B1C0F3302218A431A70FB1D1B78DB18DAB202231340D9B23B1C0F333A1CED
:401D80000F3212780A431A70034B3A1C0F3212781A60BD4604B080BD0000044080B500AF074B03221A60074B802212061A60064B04221A60054B03221A60BD4680BDC046DF
:401DC000780100200000104008001040140F104080B500AF054B054A1168054A12680A43802109010A431A60BD4680BD080010407801002080B500AF064B1B78002B04D1B2
:401E0000FFF7CCFF034B01221A70FFF7E1FFBD4680BDC0467401002080B584B000AF021CFB1D1A700E4B1B68DAB23B1C0F3302218A431A70FB1D1B78DB18DAB20223134040
:401E4000D9B23B1C0F333A1C0F3212780A431A70034B3A1C0F3212781A60BD4604B080BD00010440002934D00123002210B488422CD301242407A14204D2814202D209017A
:401E80001B01F8E7E400A14204D2814202D249005B00F8E7884201D3401A1A434C08A04202D3001B5C0822438C08A04202D3001B9C082243CC08A04202D3001BDC082243CE
:401EC000002803D01B0901D00909E3E7101C10BC7047002801D00020C04307B4024802A14018029003BDC046D90000000029F0D003B5FFF7B9FF0EBC4243891A1847C04674
:401F0000002941D010B4041C4C40A44601230022002900D54942002800D5404288422CD301242407A14204D2814202D209011B01F8E7E400A14204D2814202D249005B0079
:401F4000F8E7884201D3401A1A434C08A04202D3001B5C0822438C08A04202D3001B9C082243CC08A04202D3001BDC082243002803D01B0901D00909E3E7101C6446002C12
:401F800000D5404210BC7047002806D003DB0020C043400801E08020000607B4024802A14018029003BDC046190000000029EBD003B5FFF7A7FF0EBC4243891A1847C04679
:401FC0007047C046002B11D1002A0FD1002900D1002802D00021C943081C07B4024802A14018029003BDC046D9FFFFFF03B4684601B5029800F044F8019B9E4602B00CBCBF
:402000007047C0469C460304F0B51B0C17043F0C150C1E1C041C000C7E436B4347434543FB18300C1818874202D980235B02ED18030CED1863465C434A433604360CA1187A
:40204000000480194919F0BDF0B583B0161C1F1C0090019100F04CF8041C0D1C221C2B1C301C391CFFF7CEFF009A019B121A8B410899201C0A604B60291C03B0F0BDC0461C
:40208000F0B583B0141C1D1C0090019100F00CFA221C2B1C061C0F1CFFF7B4FF009A019B121A8B410899301C0A604B60391C03B0F0BDC0461C2101231B04984201D3000C27
:4020C00010391B0A984201D3000A08391B09984201D30009043902A2105C40187047C04604030202010101010000000000000000F0B544465F4656464D46F0B41C1C85B019
:40210000002900DADBE00F1C0021061C8A46101C191C002C00DAC9E00196009089468046002951D1B84200D871E0FFF7C3FF002809D020234546311C1B1A85408740D940BB
:40214000A8460F4386404246150C13041B0C291C381C9B46FFF786FE5B464343041C291C381C9946FFF7C2FE330C08041843814509D94044631E804500D978E1814500D821
:4021800075E1023C40444946411A8946081C291CFFF768FE5A464243071C291C48469346FFF7A4FE36040904360C0E43B34507D946447B1EB04502D8023FB34500D81F1C0D
:4021C00024042743002403E0B94211D9002400275246381C211C002A03D03B1C00215842A14105B03CBC90469946A246AB46F0BD081CFFF75FFF041E00D0BFE0B94500D23B
:4022000042E1019D0099071C8D424741E0E7002804D101200021FFF725FE80464046FFF749FF002852D1414644460B043C1B1B0CA3460D0C00930124291C5846FFF712FE95
:40224000009F81464743291C5846FFF74FFE330C090419438F4208D94B464144013B884502D88F4200D91AE19946C91B8B46081C291CFFF7F7FD009B291C4343071C584642
:402280000093FFF733FE3604009D0904360C0E43B54207D946447B1EB04502D8023FB54200D81F1C49460E04374391E75246D243031C0C1C924600215842A1412CE70027A3
:4022C00046428F41012149428A4620E720231B1A4246351C82403C1CDD40DC4087402B1C150C3B43291C8640201C009317049046FFF7B8FD3F0C011C794381468B46201C43
:40230000291CFFF7F3FD009C0904230C19438B450CD94B464144013B884500D9BDE08B4500D8BAE002225242914441445C460C1B201C291C0194FFF795FD391C4143041C40
:402340008B460198291CFFF7D1FD009A090413041B0C19438B4509D94144631E884500D997E08B4500D894E0023C41445B46CB1A49469B460B041C4300975DE7009D2023D6
:402380001B1A4A468240DD401543391C009AD94082408846311C0092D9403A1C82400B1C134301932F0C2B041B0C391C40460293FFF758FD029A81464243391C4046934680
:4023C000FFF794FD019A0904130C19438B450AD94B464919013B8D425DD88B455BD902235B42994449195A468A1A101C391C0392FFF738FD029B80464343391C03989B4609
:40240000FFF774FD019A090413041B0C19438B450AD943464919013B8D4238D88B4536D902235B42984449195D464D1BAB464946009D0F04424617432A04120C3B042D0C7A
:402440001B0C380C111C594342436B436843D3180D0C5B198C469A4202D98022520280181D0C401983450CD303D00024B0E61C1C89E665462A041B04120C9B18A6409E42CF
:40248000F3D2013F0024A3E600240127A0E69846CAE71C1C6AE79946A5E7994646E70222524291444144E0E6F0B55F4656464D464446F0B40D1C85B0061C924698460290C2
:4024C000019103921F1C141C8346A946002B59D1AA4269D9101CFFF7EDFD00280AD020231B1A311CD94085400B1C2B43864084409946B346250C23041B0C291C4846984637
:40250000FFF7B0FC4646071C4643291C4846FFF7EDFC5A460904130C19438E4209D909197B1E8C4200D957E18E4200D854E1023F0919891B8946081C291CFFF793FC434671
:402540004343061C291C48469846FFF7CFFC5A46130409041B0C1943884508D90919731E8C4200D936E1023E884500D832E1380430430027391C05B03CBC90469946A2466E
:40258000AB46F0BD019A934262D8181CFFF792FD041E60D1019B9F4200D22CE1029F03998F4260410027E5E7002A04D101200021FFF758FC041C201CFFF77CFD002800D07B
:4025C000B9E023042D1B1B0CA946260C98460127311C4846FFF746FC41464143051C8A464846311CFFF782FC5A460804130C1843824507D900196B1E844202D8824500D978
:4026000010E11D1C5346C31A181C311C9A46FFF729FC41464143814688465046311CFFF765FC5A46130409041B0C194388450BD94B460919013B8C4200D9CFE0884500D8C2
:40264000CCE002235B42994428044946084391E7002700208EE720231B1A424657468240DF401743524682400192321CDA40291CD9408540131C2B4302933D0C3B041B0CA4
:402680008846081C291C9A46FFF7ECFB534643438146291C40469B46FFF728FC029A0904130C19438B4506D94B46C919013B8F4200D8ABE099465A468A1A101C291C934657
:4026C000FFF7D0FB53464343291C804658469A46FFF70CFC029A090415042D0C29438A4506D94346C919013B8F4200D886E098465746CF1BBA464946019F0804424610432D
:402700003D042D0C03043F0C1B0C020C291C594355437B437A43EB180F0CDB198C469D4202D980277F02D2191D0C521992455FD356D000271EE720231B1A311C2F1CD940DB
:40274000DF4085400B1C84402B4386400193B3462304260C1B0C381C311C9846FFF782FB42464243051C311C381C9146FFF7BEFB019F09043B0C1943894507D909196B1E59
:402780008C424DD889454BD9023D09194A468A1A101C311C9246FFF765FB43464343071C311C50469946FFF7A1FB019A090413041B0C1943894507D909197B1E8C422DD8F4
:4027C00089452BD9023F09194B46CB1A2D0499462F43FDE61E1CCAE61F1CAAE6994633E761460A041B04120C9B18A6409E42A0D201380027BEE600270120BBE68A4500D8AA
:4028000075E702235B429844C91971E78B4500D850E702235B429944C9194CE71F1CD3E71D1CB3E7023D0019ECE6C046014B18687047C0464401002070B50E4B0E4D0024EE
:40284000ED1AAD101E1CAC4204D0A300F35898470134F8E700F0CCFD084B094D0024ED1AAD101E1CAC4204D0A300F35898470134F8E770BDFC330000FC330000FC330000D6
:402880000434000010B50023934203D0CC5CC4540133F9E710BD031C8218934202D019700133FAE7704700000EB400B59CB01DAB04CB822202A992008A810A4A02908A6064
:4028C0004A6101225242CA81074A086110681D9A019300F06BF8029A002313701CB008BC03B01847FFFFFF7F44010020F0B58D6885B0071C0C1C03920193AB4245D390229C
:402900008B89D20013423DD062690326564309692068F20F401A96190290021C0198013212187610964200D2161C381C5A050FD5311C00F021FB051E13D0029A2169FFF7A4
:40294000A1FFA289184B134080221343A38111E0321C00F065FB051E0CD1381C216900F0C3FA0C233B60A389402213430120A381404217E0029B2561ED1825606661019D22
:40298000F61AA6600198A84200D2019D2A1C2068039900F090FAA2680020531BA36023685D19256005B0F0BD7FFBFFFFF0B59FB0039005938B890E1C171C19060FD5326901
:4029C000002A0CD1402100F0D7FA30603061002803D103990C230B60C9E04023736106AD00236B6120236B763023AB763C1C2378002B03D1E21B029211D003E0252BF9D0E1
:402A00000134F4E70398311C3A1C029BFFF76EFF013000D1A6E06969029A8B186B612378002B00D19EE0012252426A606A4600235B3201342B60EB60AB601370AB654E4FA7
:402A40002178381C052200F02BFA002807D0C71B2B680120B840184328600134EFE72B68D90603D56A4620215B3211701A0703D56A462B215B32117022782A2A01D0099B03
:402A80000EE0059A111D12680591002A01DB099204E05242EA60022213432B60013409E02278303A092A04D80A214B4301349B18F6E7099323782E2B18D163782A2B09D1B1
:402AC000059B02341A1D1B680592002B0DDA01235B420AE0013400232278303A092A04D80A214B4301349B18F6E70793234F2178381C032200F0D4F9002806D0C71B2B68BB
:402B00004020B84018432860013421781C480622671C297600F0C4F9002812D0194B002B06D1059B0722073393430833059314E005AB00930398291C321C134B00E000BFB3
:402B400007E005AB00930398291C321C0E4B00F091F804900499013104D06A69049953186B6143E7B3895A0601D40B9801E0012040421FB0F0BDC046BA330000C033000029
:402B8000C433000000000000ED280000F7B5151C01930A698B68061C0C1C934200DA131C221C2B6043321278002A01D001332B602068800602D52B6802332B60216806279A
:402BC0000F401FD0231C43331B785A1E9341226892061FD5E11840313020C870211C5A1C45310978A21840320233D17012E0221C301C019919320123089FB847013011D072
:402C0000009F01370097E0682968009F431A9F42EDDBD7E7221C301C01994332089FB847013002D10120404223E0206806212B68E26801400025042903D1D51AEB43DB17FF
:402C40001D40A26823699A4201DDD31AED1800270097009FAF420BDA221C301C01991A320123089FB8470130DCD0009F0137EFE70020FEBDF0B50D1C8BB043350692059035
:402C8000079304950B7E0C1C109A6E2B00D1A7E011D8632B22D009D8002B00D1B0E0582B00D0C0E045310B707B4D4EE0642B1CD0692B1AD0B7E0732B00D1A5E009D86F2BE6
:402CC00029D0702B00D0AEE00E68202333430B6036E0752B1FD0782B32D0A4E013680D1C191D423511601B689FE0216813680E0603D5191D11601E6805E04806F9D5191D62
:402D0000116000215E5E644B002E3BDA049D2D2276422A7036E0216813680E0603D5191D11601E6804E04806F9D5191D1E881160594B227E039308276F2A1ED00A271CE0D4
:402D4000231C78214533554D197011682368081D039510601E0601D50E6802E05806FBD50E88D90702D52022134323601027002E03D1226820239A432260231C0022433383
:402D80001A7001E003930A276368A360002B03DB2568042295432560002E02D1049D002B0ED0049D301C391CFFF7A0F80398013D435C301C2B70391CFFF754F8061EF1D1A3
:402DC000082F09D12168C90706D5626823699A4202DC013D30232B70049E731B23612AE0086813684969050604D5181D10601B68196005E04606F8D5181D10601B681980B3
:402E000000232361049D16E01368191D11601D68281C00F03DF963682061984200D923612069606004E0251C42352B7001232361049E00233370079E05980096211C09AA68
:402E4000069BFFF7A3FE013002D10120404221E02A1C059806992369079DA8470130F4D02668B60705D4099BE068984212DA181C10E00025E0680999431A9D42F3DA221C8C
:402E80000598069919320123079EB0470130DCD00135EFE70BB0F0BDCB330000DC330000C9B28218904204D003788B4202D00130F8E70020704770B5814201D300230CE0E6
:402EC0008C18A042FAD28518131C013B0BD351426618F65C6918CE54F7E7934203D0CC5CC4540133F9E770BD30B5002940D004390B68002B00DAC9181E4A1368141C002B9B
:402F000002D14B60116033E099420FD208680A189A4205D113685268C01808604A6000E04B60216024E08A4203D8131C5A68002AF9D11D685C198C420BD1096869185818CE
:402F40001960904214D114685268091919605A600EE08C4202D90C23036009E008680C18944203D114685268001908604A60596030BDC0468001002070B50323CD1C9D4384
:402F80000835061C0C2D01D20C2501E0002D3FDB8D423DD3204B1C681A1C211C002913D00868431B0DD40B2B02D90B60CC181EE08C4202D1636813601AE0486860600C1C82
:402FC00016E00C1C4968E9E7144C2068002803D1301C00F04BF82060301C291C00F046F8431C15D0C41C03239C4384420AD12560201C0B300722231D9043C31A0BD05A423A
:40300000E25008E0211A301C00F030F80130EED10C233360002070BD800100207C010020F8B5061C0C1C151C002904D1111CFFF7A3FF041C18E0002A03D1FFF755FF2C1C07
:4030400012E000F02CF8A8420ED2301C291CFFF793FF071E07D0211C2A1CFFF713FC301C211CFFF741FF3C1C201CF8BD38B5074C0023051C081C2360FDF7B0FE431C03D1DB
:403080002368002B00D02B6038BDC046A00100200023C25C0133002AFBD1581E704704390B68181F002B02DAC8581B18181F7047000000003CF0FF7F010000005374617237
:4030C00074696E67206E6577206D6561737572656D656E742C2063757272656E7420766F6C746167653A202564206D560A0D0000535732207072657373656400496E69742A
:4031000069616C697A65642E2E0000004352545F74696D657220696E697469616C697A65642E2E0A0D00000020202020202020202020202020202020000000006D61783A3F
:403140002000000053656C656374207072657373656400004C6566742070726573736564000000005269676874207072657373656400000055702070726573736564000029
:40318000446F776E20707265737365640000000054696D65722073746F707065642C206D656173757265642074696D65207761733A20000020636F756E7473206F7220002E
:4031C0002075732E0A0D0000743A2000757300000400000000300F40000400400F40000401000F4031300F4016310F4032320F4017330F4009400F4007410F4006420F400A
:4032000009430F4002600F40830D405449FF4AFF4BFF4F0150185A045B045D095F016040624064406540668068806A806C806E808E04940196029A01B204B402B601C0416D
:40324000C9FFCAFFCBFFCD83CE03CF01D018D280D804DA04DB04DD99DF01E040E240E440E540E680E880EA80EC80EE8007020D080E041D081E041F804101468148016981EA
:403280006A206B10709074017680814083108C10C080C260D091D208404149FF4AFF4BFF4D834E034F0150185A045D095F016040624064406540668068806A806C806E809B
:4032C00082018E01B601BE40C054C5ECC720C823C9FFCAFFCBFFCD83CE03CF01D018D401D804DA04DB04DD99DF01E040E240E440E540E680E880EA80EC80EE8000020201D6
:403300001940410146814801490551015201594595029A809E01A001AA10AF82B101B480C009D091D208D60BEC040D805B206F2082018320C280D480DA80E2A056019A0199
:40334000AD80AF20D620EC40EE105A0160048C04D602D802E4025F0862809B08A280AA80B201B708D603EC0310011101030408080804030010080404040810000000101033
:4033800010100000000E0A0C0A0A000003070C0C0C07030010180C0C0C181000000E080E020E000000040404000400000002000000120000130000004300232D302B200090
:4033C000686C4C006566674546470030313233343536373839414243444546003031323334353637383961626364656600000000F8B5C046F8BC08BC9E467047BD0300001F
:40340000C50E0000F8B5C046F8BC08BC9E4670479503000028340000C800002080000000600000000000000000000000A8010020C0F1FF0F00366E01C05D000018000000D5
:403440000000E02E0000000000000000000000000000000000000000000000000000000000000000B833000000000000000000000000000000000000000000000000000053
:40348000000000000000000000000000000000000000000000000000000000000000000000000000E400002000000000000000000000000000000000000000000000000008
:4034C00000000000000000000000000000000000000000000000000000000000000000000000000000000000000000000000000000000000000000000000000000000000CC
:40350000000000000000000000000000000000000000000000000000000000000000000000000000000000000000000000000000000000000000000000000000000000008B
:40354000000000000000000000000000000000000000000000000000000000000000000000000000000000000000000000000000000000000000000000000000000000004B
:40358000000000000000000000000000000000000000000000000000000000000000000000000000000000000000000000000000000000000000000000000000000000000B
:0200000490303A
:020000007BFC87
:0200000490402A
:200000000000000000000000000000000000000000000000000000000000000000000000E0
:0200000490501A
:0C000000000204C81193110104D98D8F77
:0200000490600A
:0100000001FE
:00000001FF