:400000000010002011000000890A0000890A000080B500AF00F03CFD80B584B000AF021CFB1D1A70204A3B1C0B3312781A701F4A3B1C0A3312781A700423013BFB6018E09A
:400040001B4B1868391C0B31FA68131C5B009B18C3185B780B70164B1868391C0A31FA68131C5B009B18C3189B780B70FB68013BFB60FB68002B0ADB0D4B1968FA68131CF1
:400080005B009B185B5CFA1D12789A42D8D9094B3A1C0B3212781A60074B3A1C0A3212781A60BD4604B080BDCCF1FF0FCDF1FF0FD00000201CFF0B4020FF0B4080B500AF4B
:4000C0001A4B1A4A12688021C9020A431A601820FFF7A2FF164B19221A60052000F0DCFE144B154A1278D2B21A60052000F090FF0E4B0E4A1168114A0A401A60104B114ACD
:400100001A60114B10221A60104B30221A60104B822212061A600F4B0F4A1A600F4B104A1A60104B104A1A60BD4680BD00010B402CFF0B4028FF0B40E5F1FF0FFFFFFBFFAB
:4001400004010B40060000801C0202403002024008010B400000024002000080400002403F06008080000240DB0500C080B582B000AF72B6584B01221A70FB1D00221A70C2
:4001800023E0FB1D1A78131C5B009B185B00534A9B183B603B681A78597809020A43997809040A43DB781B0613431A1C3B6819795B791B020B439BB2101C191C00F0E6FC52
:4001C000FB1D1A78FB1D01321A70FB1D1B78012BD7D9434A434B101C191C00F0E7FC424B802252001A80414B01221A70404B03221A60404B03221A603F4BCC2292051A6079
:400200003E4B3F4A1A603F4B81221A603E4B3F4A1A603F4B19221A603E4B36221A603E4B38221A603D4BC1221A603D4BD82212041A603C4B01221A603B4B60221A603B4BE5
:400240003B4A1A603B4B3C4A1A603C4B3C4A1A603C4B802292021A603B4B992212041A603A4BC02292021A60394B992212041A60384B802292051A60374B992212041A6023
:40028000364B802252051A60354B01221A60354B02221A60344B344A1278D2B202210A43D2B21A70314B314A1278D2B23C218A43D2B214210A43D2B21A702B4B2A4A1278CF
:4002C000D2B216210A43D2B21A70FFF7F7FE00F0ADFCBD4602B080BD1C700F407423000080230000A823000000600F4002600F400000014004000140080001400C00014016
:4003000000EE30030000044008000440760040000001044008010440180104400002044008020440180204400003044008030440800D1B0000500F400400990004500F4058
:400340000000208008500F4010500F4018500F4020500F4028500F4030500F4038500F402000004000800F4000700F4001700F4010B5064C2378002B07D1054B002B02D0F4
:40038000044800E000BF0123237010BDE800002000000000BC22000008B5084B002B03D00748084900E000BF07480368002B03D0064B002B00D0984708BDC04600000000ED
:4003C000BC220000EC000020C80000200000000080B500AF0A4B01221A70012000F024FF084B181C00F0BEFE002000F0D3FC012001F0C8F9012001F029FABD4680BDC046B1
:4004000014010020C822000080B500AF2E4B1E221A8000F079FC2D4B181C00F0E3FC002001F0B0F901F000FA01F048F801F06CF900F04CFE0020002100F05AFE244B181CF4
:4004400000F090FE0120072100F052FE002000F0B5FE012000F0B2FE022000F0AFFE042000F0ACFE052000F0A9FE62B6194B1B78DBB2002B23D0002001F054F9031C1A1C4B
:40048000114B1B889A421DDD00F090FC021C124B1A60002001F0DAF90F4B1B685A420E4B1A6000F043FC0B4B00221A70002001F069F9094B1B68181C00F012F8D6E700F070
:4004C00063F9D3E7D2E7C0461E010020D1030000D4220000140100201801002000000000F0B587B000AFF860FB68191C00231A1C0B1C141CD80E65017D607D6805437D6052
:40050000580138603B687C685B1A9441980FA60006439D002B1C341C5B185441181C211C884B874A01F068FA031C0C1C3B617C610120002100F0DCFD8F4B181C00F012FEE6
:400540000120002100F0D4FD8C4B181C00F00AFE3B697C69181C211C7B4A7C4B01F04CFA031C0C1CDBB23033DBB2181C00F026FE3B697C69181C211C734A744B01F03CFA0F
:400580001C1C131C3B617C613B697C69181C211C6F4A704B01F030FA031C0C1CDBB23033DBB2181C00F00AFE3B697C69181C211C674A684B01F020FA1C1C131C3B617C6199
:4005C0003B697C69181C211C634A644B01F014FA031C0C1CDBB23033DBB2181C00F0EEFD3B697C69181C211C5B4A5C4B01F004FA1C1C131C3B617C612C2000F0DFFD3B6902
:400600007C69181C211C564A564B01F0F5F9031C0C1CDBB23033DBB2181C00F0CFFD3B697C69181C211C4E4A4E4B01F0E5F91C1C131C3B617C613B697C69181C211C4A4A28
:400640004A4B01F0D9F9031C0C1CDBB23033DBB2181C00F0B3FD3B697C69181C211C424A424B01F0C9F91C1C131C3B617C613B697C69181C211C3E4A3E4B01F0BDF9031C13
:400680000C1CDBB23033DBB2181C00F097FD3B697C69181C211C364A364B01F0ADF91C1C131C3B617C612C2000F088FD3B697C69181C211C6422002301F09EF9031C0C1C38
:4006C000DBB23033DBB2181C00F078FD3B697C69181C211C6422002301F08EF91C1C131C3B617C613B697C69181C211C0A22002301F082F9031C0C1CDBB23033DBB2181C3C
:4007000000F05CFD3B697C69181C211C0A22002301F072F91C1C131C3B617C613B697C69DBB23033DBB2181C00F048FD144B181C00F018FDBD4607B0F0BDC046C046C0466B
:40074000B80B00000000000000E1F50500000000809698000000000040420F0000000000A0860100000000001027000000000000E803000000000000E4220000F822000033
:40078000FC220000C046C04690B583B000AFFC1D00F02AF9031C2370344B1B78002B0FD1FB1D1B78032B03D1304B01221A7052E0FB1D1B78042B4ED12C4B02221A704AE09E
:4007C0002A4B1B78012B2BD1FB1D1B78032B03D1264B02221A703EE0FB1D1B78042B03D1224B00221A7036E0FB1D1B78052B09D11F4B1B8801339AB21D4B1A801D4B032231
:400800001A7028E0FB1D1B78022B24D1184B1B88013B9AB2164B1A80164B03221A701AE0124B1B78022B0FD1FB1D1B78032B03D10E4B00221A700EE0FB1D1B78042B0AD174
:400840000A4B01221A7006E0084B1B78032B02D1064B00221A70054B1B78181C00F00CF800235BB2181CBD4603B090BDCC0000201E010020CD00002090B585B000AF021CDB
:40088000FB1D1A70FB1D1B78002B34D13C1C0E34002000F047FF031C23803C4B1B78FA1D12789A4206D0002000F082F8384B181C00F058FC3B1C0E3300215A5E354B1B8883
:4008C0009A4205DC314B1B78FA1D12789A4211D03B1C0E331A882F4B1A80012000F068F82D4B181C00F03EFC2A4B1B88181C00F03BFD41E040E0FB1D1B78012B1DD1234B51
:400900001B78FA1D12789A420DD0002000F050F8224B181C00F026FC012000F049F8204B181C00F01FFC0120082100F0E1FB1D4B1B88181C00F018FD1EE0FB1D1B78022B93
:400940001AD1124B1B78FA1D12789A420DD0002000F02EF8144B181C00F004FC012000F027F8124B181C00F0FDFB01200D2100F0BFFB7B2000F0F8FC044BFA1D12781A70EE
:400980000F2000F021FBBD4605B090BDCD000020002300000401002010230000182300002C2300001E010020382300004C23000080B582B000AF021CFB1D1A70FB1D1B787B
:4009C000181C002100F094FB064B181C00F0CAFBFB1D1B78181C002100F08AFBBD4602B080BDC0465C23000080B582B000AF012000F098FE031C1A1C3B1D1A803B1D1A88FF
:400A00001F4B9A4203D03B1D1B88052B03D8FB1D05221A7022E03B1D1B88142B03D8FB1D04221A701AE03B1D1B88282B03D8FB1D03221A7012E03B1D1B883C2B03D8FB1DBE
:400A400002221A700AE03B1D1B88642B03D8FB1D01221A7002E0FB1D00221A70094B1B78FA1D12789A4206D0064BFA1D12781A70044B1B7800E00023181CBD4602B080BD4D
:400A8000FFFF00000601002080B500AFFEE7C04680B586B000AF224B7B61224B3B61204B7B6135E03B691B68FB603B695B68BB603B699B683B6000237B600CE0FB681A6865
:400AC000BB681A60BB680433BB60FB680433FB607B6804337B607A683B689A42EED13B69DB683B6000237B6008E0BB6800221A60BB680433BB607B6804337B607A683B68C4
:400B00009A42F2D13B6910333B617B69013B7B617B69002BC6D101F0A3FBFFF775FCFEE7010000008025000080B582B000AF00237B600FE07B68032B04D8104B7A689200B1
:400B4000D35800E00E4B0F4A796889008B507B6801337B607B682F2BECD9FFF707FB0A4B00221A608023DB058022D205126801210A431A60BD4602B080BDC046000000003F
:400B8000890A000000000020C000002080B582B000AF786039607A683B68101C00211A1C01F084FBBD4602B080BDC04680B586B000AF7860396000233B6100237B612EE054
:400BC0007B699B007A68D3181B68BB603B1C0F33BA681A70BB68FF229343BB6017E03B695B003A68D3181B781A1CBB68D3183A69520039688A1852781A703B6901333B6137
:400C00003B1C0F331A783B1C0F33013A1A703B1C0F331B78002BE2D17B6901337B617B69092BCDD9BD4606B080BDC04680B500AF084B094A1A60094B08221A60084B094AD1
:400C40001A60094B074A1A60012000F00FF8BD4680BDC0468800104002012400C000104000031A400100400040031A4080B584B000AF021CFB1D1A700B4B1B68FB60FB1D0F
:400C80001B78002B05D0FB68802212061343FB6003E0FB685B005B08FB60034BFA681A60BD4604B080BDC04680031A4090B583B000AF01235B42181C00F056F801235B4258
:400CC000181C00F067F8FC1D00F0F0F8031C23700A4B0A4A1278D2B210210A43D2B21A70FB1D1B78181C00F0E5F800F06DF8002000F020F8BD4603B090BDC04693000F4077
:400D000080B500AFBD4680BD80B500AF064B1B78002B04D1FFF7CAFF034B01221A70FFF7EFFFBD4680BDC0460701002080B500AFBD4680BD80B582B000AF021CFB1D1A70C1
:400D4000034BFA1D12781A70BD4602B080BDC04683000F4080B500AF024B1B78DBB2181CBD4680BD63000F4080B582B000AF7860024B7A681A60BD4602B080BD80200F4041
:400D800080B500AF024B1B68181CBD4680BDC04600210F4080B582B000AF7860024B7A681A60BD4602B080BD00200F4080B500AF034B1B78034B1B68181CBD4680BDC0468D
:400DC00000000F4000210F4080B500AF01E0FFF7D7FFFFF7BFFF031C1A1C08231340F6D1BD4680BD80B582B000AF786000F04AF87B68181C00F008F8032000F011F800F0E2
:400E000037F8BD4602B080BD80B582B000AF7860024B7A681A64BD4602B080BD0000002090B585B000AF021CFB1D1A700623FB603C1C0B3400F03AF8031C23700B4B0B4A61
:400E40001268C021101C8843011CFA1D1078FA68041C9440221C0A431A603B1C0B331B78181C00F027F8BD4605B090BD00E400E080B500AF024B01221A60BD4680BDC046C1
:400E800000E100E080B500AF024B01221A60BD4680BDC04680E100E00230800804D0C0460138FDD1C046C046C0467047EFF3108072B6704780F310887047C046C046C04693
:400EC00080B584B000AF021C3960FB1D1A7080239B05FB60FB1D1B781F2B02D9002000F069F8FB1D1B7810339B00FA68D3181B68BB60FB1D1B7810339B00FA68D3183A68B6
:400F00001A60BB68181CBD4604B080BD90B587B000AF0A1CFB1D011C1970BB1D1A70BB1D1B78032B02D9002000F044F8FB1D1B781F2B02D9002000F03DF8FB1D1A780323D6
:400F40001340DB0006337B613C1C1334FFF7AEFF031C2370FB1D1B789B08DBB29B0014495B181B68FB607B690322111C99400B1CDA43FB681340FB60BB1D1A787B69111C37
:400F800099400B1CFA681343FB60FB1D1B789B08DBB29B00064A9B18FA681A603B1C13331B78181CFFF786FFBD4607B090BDC04600E400E080B582B000AF021CFB1D1A7043
:400FC00001BEBD4602B080BD80B582B000AF786008E00C4B1B68181CFFF75EFF7B680A4A9B187B607A6880231B029A42F1D8074B1B687A685343181CFFF74EFFBD4602B084
:4010000080BDC046E00000200080FFFFD800002080B582B000AF021CBB1D1A80BB1D1B88044A12785343181CFFF736FFBD4602B080BDC046DC00002080B500AF2820FFF7F3
:40104000C3FF032000F05EF90520FFF7BDFF032000F058F90F20FFF7B7FF032000F052F90120FFF7B1FF022000F04CF90520FFF7ABFF062000F0D8F80E2000F0D5F82C20D0
:4010800000F0D2F8082000F0CFF8012000F0CCF80C2000F0C9F8032000F0C6F80520FFF793FF034B181C00F0DDF9BD4680BDC0461025000080B500AF0C2000F0B5F8024BAA
:4010C00001221A70BD4680BD0801002080B500AF064B1B78002B04D1FFF7AEFF034B01221A70FFF7E7FFBD4680BDC0460901002080B582B000AF0A1CFB1D011C1970BB1D56
:401100001A70FB1D1B78012B10D002DC002B05D024E0022B12D0032B18D01FE0BB1D1B78803BDBB2181C00F07FF817E0BB1D1B78403BDBB2181C00F077F80FE0BB1D1B78C3
:401140006C3BDBB2181C00F06FF807E0BB1D1B782C3BDBB2181C00F067F8C046BD4602B080BDC04680B584B000AF78603B1C0F3301221A703B1C0E337A6812781A7015E030
:401180003B1C0E331B78181C00F026F83B1C0F331B787A68D2183B1C0E3312781A703B1C0F331A783B1C0F3301321A703B1C0E331B78002BE4D1BD4604B080BD80B582B037
:4011C00000AF021CFB1D1A70FB1D1B78181C00F003F8BD4602B080BD80B584B000AF021CFB1D1A703B1C0F33FA1D127812091A703B1C0F331B78181C00F04AF86420FFF701
:4012000007FF3B1C0F33FA1D11780F220A401A703B1C0F331B78181C00F03AF89620FFF7F7FEBD4604B080BD80B584B000AF021CFB1D1A703B1C0F33FA1D127812091A709C
:401240003B1C0F331B78181C00F05CF86420FFF7DFFE3B1C0F33FA1D11780F220A401A703B1C0F331B78181C00F04CF8034B181CFFF7CEFEBD4604B080BDC046DC05000082
:4012800080B500AF0120FFF79FFEBD4680BDC04680B582B000AF021CFB1D1A70184B184A1278D2B220210A43D2B21A70144B144A1278D2B240218A43D2B21A70104B104A4F
:4012C0001278D2B20F218A43D2B21A700C4B0C4A1278D1B2FA1D12780A43D2B210210A43D2B21A700120FFF793FE054B044A1278D2B210218A43D2B21A70BD4602B080BDCB
:4013000070000F4080B582B000AF021CFB1D1A70144B144A1278D2B260218A43D2B21A70104B104A1278D2B20F218A43D2B21A700C4B0C4A1278D1B2FA1D12780A43D2B2F7
:4013400010210A43D2B21A700120FFF761FE054B044A1278D2B210218A43D2B21A70BD4602B080BD70000F4090B587B000AF021CBB1D1A803B1C173300221A7020E03B1CA3
:4013800017331C78BB1D1B88181C0A2100F0C8FA0B1C9BB2DBB23033DAB23B1C08331A55BC1DBB1D1B88181C0A2100F075FA031C23803B1C17331A783B1C173301321A706D
:4013C000BB1D1B88092BDAD83B1C17331C78BB1D1B88181C0A2100F0A3FA0B1C9BB2DBB23033DAB23B1C08331A553B1C16333A1C173212781A7016E03B1C16331A783B1C2D
:4014000017331B78D31A3A1C17321278391C0831895C3A1C1032D1543B1C17331A783B1C1733013A1A703B1C17331B78002BE3D13B1C16331B783A1C083211783A1C1032F9
:40144000D1543B1C16331B7801333A1C10320021D1543B1C1033181CFFF784FEBD4607B090BDC04680B584B000AF7860FFF708FF4020FFF7D9FE3B1C0F3300221A700FE061
:401480003B1C0F331B787A68D3181B78181CFFF7A3FE3B1C0F331A783B1C0F3301321A703B1C0F331B783F2BEAD9FFF7E9FE8020FFF7BAFEBD4604B080BDC04680B500AFF2
:4014C000064B1B78002B04D100F00AF8034B01221A7000F005F9BD4680BDC0460A01002090B585B000AF0E200321FFF70FFD5E4B0E20191CFFF7E4FC5C4B03221A605C4B70
:401500005C4A1A605C4B5D4A1A605D4B5D4A1A605D4B00221A605D4B5D4A1A605D4B5E4A1A605E4B5D4A1268802149020A431A605B4B5B4A1268802149020A431A60594B8A
:4015400000221A60584B00221A60584B01221A60574B02221A60574B1B687B607A68564B13407B607B68012213437B60514B7A681A60524B02221A600023FB606DE0504B8F
:40158000FA689200D258DC239B0113407B604D4AFB68D3181B787A6813437B60FB689B00494A9B187A681A60454BFA689200D258012313400AD03B4B3A4A1168FA68012014
:4015C000041C9440221C92B20A431A603C4BFA689200D258022313400AD0334B324A1168FA680120041C9440221C92B20A431A60334BFA689200D25880239B00134003D084
:4016000080235B00BB6002E080235B01BB602C4BFA689200D25880235B00134005D12B4BFA6852000021D15204E0284BFA6852000021D152BB68264A5343264A9B18181C9C
:40164000254900F077F9031C9BB219B2234BFA689200D150FB680133FB60FB68012B8ED9BD4605B090BDC0466917000020001A4000001A407020001004001A408C00008091
:4016800018001A400000FF071C001A4010001A4032001E0014001A400200020000031A4040031A4028021A4038021A4018021A40000F1A4030001A40FFFFFFDF040F1A404E
:4016C000502500005825000080001A402801002010270000E40C0000C81900002001002080B500AF074B1B68002B09DB054B054A1268802109060A431A600A20FFF788FC90
:40170000BD4680BD00001A4080B500AF044B044A1268802149020A431A60BD4680BDC04604001A4080B584B000AF78607B68012B02D90020FFF73EFC7B68012B08D87B68C1
:401740009B00084A9B181B681B041B0CFB6001E00023FB60FB689BB21BB2181CBD4604B080BDC04680011A4080B582B000AF044B1B687B60024B7A681A60BD4602B080BD62
:4017800010021A4080B584B000AF021CFB1D1A700E4B1B68DAB23B1C0F3302218A431A70FB1D1B78DB18DAB202231340D9B23B1C0F333A1C0F3212780A431A70034B3A1C08
:4017C0000F3212781A60BD4604B080BD0000044080B500AF074B03221A60074B802212061A60064B04221A60054B03221A60BD4680BDC04610010020000010400800104012
:40180000140F104080B500AF054B054A1168054A12680A43802109010A431A60BD4680BD080010401001002080B500AF064B1B78002B04D1FFF7CCFF034B01221A70FFF76E
:40184000E1FFBD4680BDC0460C01002080B584B000AF021CFB1D1A700E4B1B68DAB23B1C0F3302218A431A70FB1D1B78DB18DAB202231340D9B23B1C0F333A1C0F321278DB
:401880000A431A70034B3A1C0F3212781A60BD4604B080BD00010440002934D00123002210B488422CD301242407A14204D2814202D209011B01F8E7E400A14204D281422A
:4018C00002D249005B00F8E7884201D3401A1A434C08A04202D3001B5C0822438C08A04202D3001B9C082243CC08A04202D3001BDC082243002803D01B0901D00909E3E723
:40190000101C10BC7047002801D00020C04307B4024802A14018029003BDC046D90000000029F0D003B5FFF7B9FF0EBC4243891A1847C046002941D010B4041C4C40A44671
:4019400001230022002900D54942002800D5404288422CD301242407A14204D2814202D209011B01F8E7E400A14204D2814202D249005B00F8E7884201D3401A1A434C084B
:40198000A04202D3001B5C0822438C08A04202D3001B9C082243CC08A04202D3001BDC082243002803D01B0901D00909E3E7101C6446002C00D5404210BC7047002806D088
:4019C00003DB0020C043400801E08020000607B4024802A14018029003BDC046190000000029EBD003B5FFF7A7FF0EBC4243891A1847C0467047C046002B11D1002A0FD143
:401A0000002900D1002802D00021C943081C07B4024802A14018029003BDC046D9FFFFFF03B4684601B5029800F044F8019B9E4602B00CBC7047C0469C460304F0B51B0CE6
:401A400017043F0C150C1E1C041C000C7E436B4347434543FB18300C1818874202D980235B02ED18030CED1863465C434A433604360CA118000480194919F0BDF0B583B02E
:401A8000161C1F1C0090019100F04CF8041C0D1C221C2B1C301C391CFFF7CEFF009A019B121A8B410899201C0A604B60291C03B0F0BDC046F0B583B0141C1D1C0090019103
:401AC00000F00CFA221C2B1C061C0F1CFFF7B4FF009A019B121A8B410899301C0A604B60391C03B0F0BDC0461C2101231B04984201D3000C10391B0A984201D3000A0839E9
:401B00001B09984201D30009043902A2105C40187047C04604030202010101010000000000000000F0B544465F4656464D46F0B41C1C85B0002900DADBE00F1C0021061C19
:401B40008A46101C191C002C00DAC9E00196009089468046002951D1B84200D871E0FFF7C3FF002809D020234546311C1B1A85408740D940A8460F4386404246150C1304E7
:401B80001B0C291C381C9B46FFF786FE5B464343041C291C381C9946FFF7C2FE330C08041843814509D94044631E804500D978E1814500D875E1023C40444946411A8946DC
:401BC000081C291CFFF768FE5A464243071C291C48469346FFF7A4FE36040904360C0E43B34507D946447B1EB04502D8023FB34500D81F1C24042743002403E0B94211D926
:401C0000002400275246381C211C002A03D03B1C00215842A14105B03CBC90469946A246AB46F0BD081CFFF75FFF041E00D0BFE0B94500D242E1019D0099071C8D424741AA
:401C4000E0E7002804D101200021FFF725FE80464046FFF749FF002852D1414644460B043C1B1B0CA3460D0C00930124291C5846FFF712FE009F81464743291C5846FFF766
:401C80004FFE330C090419438F4208D94B464144013B884502D88F4200D91AE19946C91B8B46081C291CFFF7F7FD009B291C4343071C58460093FFF733FE3604009D090433
:401CC000360C0E43B54207D946447B1EB04502D8023FB54200D81F1C49460E04374391E75246D243031C0C1C924600215842A1412CE7002746428F41012149428A4620E72B
:401D000020231B1A4246351C82403C1CDD40DC4087402B1C150C3B43291C8640201C009317049046FFF7B8FD3F0C011C794381468B46201C291CFFF7F3FD009C0904230CE1
:401D400019438B450CD94B464144013B884500D9BDE08B4500D8BAE002225242914441445C460C1B201C291C0194FFF795FD391C4143041C8B460198291CFFF7D1FD009AFC
:401D8000090413041B0C19438B4509D94144631E884500D997E08B4500D894E0023C41445B46CB1A49469B460B041C4300975DE7009D20231B1A4A468240DD401543391C58
:401DC000009AD94082408846311C0092D9403A1C82400B1C134301932F0C2B041B0C391C40460293FFF758FD029A81464243391C40469346FFF794FD019A0904130C1943ED
:401E00008B450AD94B464919013B8D425DD88B455BD902235B42994449195A468A1A101C391C0392FFF738FD029B80464343391C03989B46FFF774FD019A090413041B0C2B
:401E400019438B450AD943464919013B8D4238D88B4536D902235B42984449195D464D1BAB464946009D0F04424617432A04120C3B042D0C1B0C380C111C594342436B4326
:401E80006843D3180D0C5B198C469A4202D98022520280181D0C401983450CD303D00024B0E61C1C89E665462A041B04120C9B18A6409E42F3D2013F0024A3E600240127FE
:401EC000A0E69846CAE71C1C6AE79946A5E7994646E70222524291444144E0E6F0B55F4656464D464446F0B40D1C85B0061C924698460290019103921F1C141C8346A9463C
:401F0000002B59D1AA4269D9101CFFF7EDFD00280AD020231B1A311CD94085400B1C2B43864084409946B346250C23041B0C291C48469846FFF7B0FC4646071C4643291C27
:401F40004846FFF7EDFC5A460904130C19438E4209D909197B1E8C4200D957E18E4200D854E1023F0919891B8946081C291CFFF793FC43464343061C291C48469846FFF707
:401F8000CFFC5A46130409041B0C1943884508D90919731E8C4200D936E1023E884500D832E1380430430027391C05B03CBC90469946A246AB46F0BD019A934262D8181C07
:401FC000FFF792FD041E60D1019B9F4200D22CE1029F03998F4260410027E5E7002A04D101200021FFF758FC041C201CFFF77CFD002800D0B9E023042D1B1B0CA946260C6D
:4020000098460127311C4846FFF746FC41464143051C8A464846311CFFF782FC5A460804130C1843824507D900196B1E844202D8824500D910E11D1C5346C31A181C311C6C
:402040009A46FFF729FC41464143814688465046311CFFF765FC5A46130409041B0C194388450BD94B460919013B8C4200D9CFE0884500D8CCE002235B42994428044946A3
:40208000084391E7002700208EE720231B1A424657468240DF401743524682400192321CDA40291CD9408540131C2B4302933D0C3B041B0C8846081C291C9A46FFF7ECFB7C
:4020C000534643438146291C40469B46FFF728FC029A0904130C19438B4506D94B46C919013B8F4200D8ABE099465A468A1A101C291C9346FFF7D0FB53464343291C804626
:4021000058469A46FFF70CFC029A090415042D0C29438A4506D94346C919013B8F4200D886E098465746CF1BBA464946019F0804424610433D042D0C03043F0C1B0C020CDC
:40214000291C594355437B437A43EB180F0CDB198C469D4202D980277F02D2191D0C521992455FD356D000271EE720231B1A311C2F1CD940DF4085400B1C84402B4386409F
:402180000193B3462304260C1B0C381C311C9846FFF782FB42464243051C311C381C9146FFF7BEFB019F09043B0C1943894507D909196B1E8C424DD889454BD9023D0919DC
:4021C0004A468A1A101C311C9246FFF765FB43464343071C311C50469946FFF7A1FB019A090413041B0C1943894507D909197B1E8C422DD889452BD9023F09194B46CB1A55
:402200002D0499462F43FDE61E1CCAE61F1CAAE6994633E761460A041B04120C9B18A6409E42A0D201380027BEE600270120BBE68A4500D875E702235B429844C91971E7E6
:402240008B4500D850E702235B429944C9194CE71F1CD3E71D1CB3E7023D0019ECE6C04670B50E4B0E4D0024ED1AAD101E1CAC4204D0A300F35898470134F8E700F06EF9DE
:40228000084B094D0024ED1AAD101E1CAC4204D0A300F35898470134F8E770BD68250000682500006825000070250000031C8218934202D019700133FAE770470000000092
:4022C00064F8FF7F01000000535732207072657373656400496E697469616C697A65642E2E0000002020202020202020202020202020202000000000743A20007573000089
:40230000202020203C4D41494E3E2020202020004D61783A20000000203C43414C4942524154494F4E3E2020000000007461726765743A20000000002020203C52455355A0
:402340004C54533E20202020000000006C6173742074696D696E673A2000000020202020202020202020202020202020000000000400000000300F40000400400F400004DC
:4023800001000F402F300F4014310F4032320F4019330F400B400F4008410F4006420F4009430F4002600F40830D402449FF4AFF4BFF4F0150185A045B045D095F0160407E
:4023C000624064406540668068806A806C806E80930195019702AF04B304B501B702C025C9FFCAFFCBFFCD83CE03CF01D018D904DA04DD09DF01E040E240E440E540E68039
:40240000E880EA80EC80EE802608270A2E80360837024101420846084E0269816A206B107090814083108C10CA10CCC0D025D210402449FF4AFF4BFF4D834E034F0150180E
:402440005A045D095F016040624064406540668068806A806C806E8087019301B701BF40C024C5ECC720C823C9FFCAFFCBFFCD83CE03CF01D018D401D904DA04DB04DD99C8
:40248000DF01E040E240E440E540E680E880EA80EC80EE80224031023A08410142084502460849055103520259055A8095029A08A602AA10AB08AE88B101B480CC01CE0272
:4024C000D0A5D60BEC0403080F045B206F1082018320C040C280D480DA80E2A056019A01AB10AF0CD620E840EA20EC405A0160048C04D602D802E4025F0862809B08A28035
:40250000AA80B201B708D603EC03100111010000030408080804030010080404040810000000101010100000000E0A0C0A0A000003070C0C0C07030010180C0C0C1810008E
:40254000000E080E020E00000004040400040000000200000012000013000000F8B5C046F8BC08BC9E46704799030000290B0000F8B5C046F8BC08BC9E4670477103000020
:4025800090250000C800002020000000480000000000000003030000C0F1FF0F00366E01C05D0000180000000000E02E000000000000000000000000000000000000000069
:4025C00000000000000000000000000000000000000000000000000000000000000000000000000000000000000000000000000000000000000000000000000000000000DB
:40260000000000000000000000000000000000000000000000000000000000000000000000000000000000000000000000000000000000000000000000000000000000009A
:40264000000000000000000000000000000000000000000000000000000000000000000000000000000000000000000000000000000000000000000000000000000000005A
:40268000000000000000000000000000000000000000000000000000000000000000000000000000000000000000000000000000000000000000000000000000000000001A
:0200000490303A
:0200000093B0BB
:0200000490402A
:200000000000000000000000000000000000000000000000000000000000000000000000E0
:0200000490501A
:0C000000000204C81193110104D4A543B0
:0200000490600A
:0100000001FE
:00000001FF